{"abi":[{"type":"constructor","inputs":[{"name":"_escrowAddress","type":"address","internalType":"address"},{"name":"_disputeAddress","type":"address","internalType":"address"},{"name":"_admin","type":"address","internalType":"address"}],"stateMutability":"nonpayable"},{"type":"function","name":"DEFAULT_ADMIN_ROLE","inputs":[],"outputs":[{"name":"","type":"bytes32","internalType":"bytes32"}],"stateMutability":"view"},{"type":"function","name":"EXCELLENT_REWARD","inputs":[],"outputs":[{"name":"","type":"uint256","internalType":"uint256"}],"stateMutability":"view"},{"type":"function","name":"GOOD_REWARD","inputs":[],"outputs":[{"name":"","type":"uint256","internalType":"uint256"}],"stateMutability":"view"},{"type":"function","name":"MAD_MULTIPLIER","inputs":[],"outputs":[{"name":"","type":"uint256","internalType":"uint256"}],"stateMutability":"view"},{"type":"function","name":"MAX_KARMA","inputs":[],"outputs":[{"name":"","type":"uint256","internalType":"uint256"}],"stateMutability":"view"},{"type":"function","name":"MAX_KARMA_LOSS","inputs":[],"outputs":[{"name":"","type":"uint256","internalType":"uint256"}],"stateMutability":"view"},{"type":"function","name":"MIN_DEVIATION_THRESHOLD","inputs":[],"outputs":[{"name":"","type":"uint256","internalType":"uint256"}],"stateMutability":"view"},{"type":"function","name":"MIN_KARMA","inputs":[],"outputs":[{"name":"","type":"uint256","internalType":"uint256"}],"stateMutability":"view"},{"type":"function","name":"STARTING_KARMA","inputs":[],"outputs":[{"name":"","type":"uint256","internalType":"uint256"}],"stateMutability":"view"},{"type":"function","name":"VOTER_ROLE","inputs":[],"outputs":[{"name":"","type":"bytes32","internalType":"bytes32"}],"stateMutability":"view"},{"type":"function","name":"adjustVoterKarma","inputs":[{"name":"_voter","type":"address","internalType":"address"},{"name":"_newKarma","type":"uint256","internalType":"uint256"}],"outputs":[],"stateMutability":"nonpayable"},{"type":"function","name":"banVoter","inputs":[{"name":"_voter","type":"address","internalType":"address"}],"outputs":[],"stateMutability":"nonpayable"},{"type":"function","name":"castVote","inputs":[{"name":"_jobId","type":"uint256","internalType":"uint256"},{"name":"_contractorPercent","type":"uint256","internalType":"uint256"}],"outputs":[],"stateMutability":"nonpayable"},{"type":"function","name":"disputeContract","inputs":[],"outputs":[{"name":"","type":"address","internalType":"contract TFADispute"}],"stateMutability":"view"},{"type":"function","name":"escrow","inputs":[],"outputs":[{"name":"","type":"address","internalType":"contract TFAEscrow"}],"stateMutability":"view"},{"type":"function","name":"finalizeVoting","inputs":[{"name":"_jobId","type":"uint256","internalType":"uint256"}],"outputs":[],"stateMutability":"nonpayable"},{"type":"function","name":"getRoleAdmin","inputs":[{"name":"role","type":"bytes32","internalType":"bytes32"}],"outputs":[{"name":"","type":"bytes32","internalType":"bytes32"}],"stateMutability":"view"},{"type":"function","name":"getSessionInfo","inputs":[{"name":"_jobId","type":"uint256","internalType":"uint256"}],"outputs":[{"name":"isActive","type":"bool","internalType":"bool"},{"name":"endTime","type":"uint256","internalType":"uint256"},{"name":"totalVotes","type":"uint256","internalType":"uint256"},{"name":"isFinalized","type":"bool","internalType":"bool"},{"name":"consensusPercent","type":"uint256","internalType":"uint256"}],"stateMutability":"view"},{"type":"function","name":"getVote","inputs":[{"name":"_jobId","type":"uint256","internalType":"uint256"},{"name":"_voteIndex","type":"uint256","internalType":"uint256"}],"outputs":[{"name":"voter","type":"address","internalType":"address"},{"name":"contractorPercent","type":"uint256","internalType":"uint256"},{"name":"karma","type":"uint256","internalType":"uint256"},{"name":"isOutlier","type":"bool","internalType":"bool"},{"name":"deviation","type":"uint256","internalType":"uint256"}],"stateMutability":"view"},{"type":"function","name":"getVoterInfo","inputs":[{"name":"_voter","type":"address","internalType":"address"}],"outputs":[{"name":"isVoter","type":"bool","internalType":"bool"},{"name":"karma","type":"uint256","internalType":"uint256"},{"name":"canVote","type":"bool","internalType":"bool"}],"stateMutability":"view"},{"type":"function","name":"getVoterKarma","inputs":[{"name":"_voter","type":"address","internalType":"address"}],"outputs":[{"name":"","type":"uint256","internalType":"uint256"}],"stateMutability":"view"},{"type":"function","name":"grantRole","inputs":[{"name":"role","type":"bytes32","internalType":"bytes32"},{"name":"account","type":"address","internalType":"address"}],"outputs":[],"stateMutability":"nonpayable"},{"type":"function","name":"hasRole","inputs":[{"name":"role","type":"bytes32","internalType":"bytes32"},{"name":"account","type":"address","internalType":"address"}],"outputs":[{"name":"","type":"bool","internalType":"bool"}],"stateMutability":"view"},{"type":"function","name":"isActiveVoter","inputs":[{"name":"_voter","type":"address","internalType":"address"}],"outputs":[{"name":"","type":"bool","internalType":"bool"}],"stateMutability":"view"},{"type":"function","name":"minVotersRequired","inputs":[],"outputs":[{"name":"","type":"uint256","internalType":"uint256"}],"stateMutability":"view"},{"type":"function","name":"registerVoter","inputs":[{"name":"_voter","type":"address","internalType":"address"}],"outputs":[],"stateMutability":"nonpayable"},{"type":"function","name":"removeVoter","inputs":[{"name":"_voter","type":"address","internalType":"address"}],"outputs":[],"stateMutability":"nonpayable"},{"type":"function","name":"renounceRole","inputs":[{"name":"role","type":"bytes32","internalType":"bytes32"},{"name":"callerConfirmation","type":"address","internalType":"address"}],"outputs":[],"stateMutability":"nonpayable"},{"type":"function","name":"revokeRole","inputs":[{"name":"role","type":"bytes32","internalType":"bytes32"},{"name":"account","type":"address","internalType":"address"}],"outputs":[],"stateMutability":"nonpayable"},{"type":"function","name":"setMinVotersRequired","inputs":[{"name":"_count","type":"uint256","internalType":"uint256"}],"outputs":[],"stateMutability":"nonpayable"},{"type":"function","name":"setVotingDuration","inputs":[{"name":"_duration","type":"uint256","internalType":"uint256"}],"outputs":[],"stateMutability":"nonpayable"},{"type":"function","name":"startVoting","inputs":[{"name":"_jobId","type":"uint256","internalType":"uint256"},{"name":"_customDuration","type":"uint256","internalType":"uint256"}],"outputs":[],"stateMutability":"nonpayable"},{"type":"function","name":"supportsInterface","inputs":[{"name":"interfaceId","type":"bytes4","internalType":"bytes4"}],"outputs":[{"name":"","type":"bool","internalType":"bool"}],"stateMutability":"view"},{"type":"function","name":"voterKarma","inputs":[{"name":"","type":"address","internalType":"address"}],"outputs":[{"name":"","type":"uint256","internalType":"uint256"}],"stateMutability":"view"},{"type":"function","name":"votingDuration","inputs":[],"outputs":[{"name":"","type":"uint256","internalType":"uint256"}],"stateMutability":"view"},{"type":"function","name":"votingSessions","inputs":[{"name":"","type":"uint256","internalType":"uint256"}],"outputs":[{"name":"jobId","type":"uint256","internalType":"uint256"},{"name":"isActive","type":"bool","internalType":"bool"},{"name":"startTime","type":"uint256","internalType":"uint256"},{"name":"endTime","type":"uint256","internalType":"uint256"},{"name":"totalVotes","type":"uint256","internalType":"uint256"},{"name":"duration","type":"uint256","internalType":"uint256"},{"name":"isFinalized","type":"bool","internalType":"bool"},{"name":"consensusPercent","type":"uint256","internalType":"uint256"},{"name":"mad","type":"uint256","internalType":"uint256"},{"name":"outlierThreshold","type":"uint256","internalType":"uint256"}],"stateMutability":"view"},{"type":"event","name":"FeesDistributed","inputs":[{"name":"jobId","type":"uint256","indexed":true,"internalType":"uint256"},{"name":"voter","type":"address","indexed":true,"internalType":"address"},{"name":"amount","type":"uint256","indexed":false,"internalType":"uint256"}],"anonymous":false},{"type":"event","name":"KarmaAdjustedByAdmin","inputs":[{"name":"voter","type":"address","indexed":true,"internalType":"address"},{"name":"oldKarma","type":"uint256","indexed":false,"internalType":"uint256"},{"name":"newKarma","type":"uint256","indexed":false,"internalType":"uint256"}],"anonymous":false},{"type":"event","name":"KarmaUpdated","inputs":[{"name":"voter","type":"address","indexed":true,"internalType":"address"},{"name":"oldKarma","type":"uint256","indexed":false,"internalType":"uint256"},{"name":"newKarma","type":"uint256","indexed":false,"internalType":"uint256"}],"anonymous":false},{"type":"event","name":"OutlierIdentified","inputs":[{"name":"jobId","type":"uint256","indexed":true,"internalType":"uint256"},{"name":"voter","type":"address","indexed":true,"internalType":"address"},{"name":"deviation","type":"uint256","indexed":false,"internalType":"uint256"}],"anonymous":false},{"type":"event","name":"RoleAdminChanged","inputs":[{"name":"role","type":"bytes32","indexed":true,"internalType":"bytes32"},{"name":"previousAdminRole","type":"bytes32","indexed":true,"internalType":"bytes32"},{"name":"newAdminRole","type":"bytes32","indexed":true,"internalType":"bytes32"}],"anonymous":false},{"type":"event","name":"RoleGranted","inputs":[{"name":"role","type":"bytes32","indexed":true,"internalType":"bytes32"},{"name":"account","type":"address","indexed":true,"internalType":"address"},{"name":"sender","type":"address","indexed":true,"internalType":"address"}],"anonymous":false},{"type":"event","name":"RoleRevoked","inputs":[{"name":"role","type":"bytes32","indexed":true,"internalType":"bytes32"},{"name":"account","type":"address","indexed":true,"internalType":"address"},{"name":"sender","type":"address","indexed":true,"internalType":"address"}],"anonymous":false},{"type":"event","name":"VoteCast","inputs":[{"name":"jobId","type":"uint256","indexed":true,"internalType":"uint256"},{"name":"voter","type":"address","indexed":true,"internalType":"address"},{"name":"contractorPercent","type":"uint256","indexed":false,"internalType":"uint256"},{"name":"karma","type":"uint256","indexed":false,"internalType":"uint256"}],"anonymous":false},{"type":"event","name":"VoterBanned","inputs":[{"name":"voter","type":"address","indexed":true,"internalType":"address"},{"name":"finalKarma","type":"uint256","indexed":false,"internalType":"uint256"}],"anonymous":false},{"type":"event","name":"VoterRegistered","inputs":[{"name":"voter","type":"address","indexed":true,"internalType":"address"},{"name":"startingKarma","type":"uint256","indexed":false,"internalType":"uint256"}],"anonymous":false},{"type":"event","name":"VoterRemoved","inputs":[{"name":"voter","type":"address","indexed":true,"internalType":"address"},{"name":"finalKarma","type":"uint256","indexed":false,"internalType":"uint256"}],"anonymous":false},{"type":"event","name":"VotingFinalized","inputs":[{"name":"jobId","type":"uint256","indexed":true,"internalType":"uint256"},{"name":"consensusPercent","type":"uint256","indexed":false,"internalType":"uint256"},{"name":"mad","type":"uint256","indexed":false,"internalType":"uint256"}],"anonymous":false},{"type":"event","name":"VotingSessionStarted","inputs":[{"name":"jobId","type":"uint256","indexed":true,"internalType":"uint256"},{"name":"endTime","type":"uint256","indexed":false,"internalType":"uint256"}],"anonymous":false},{"type":"error","name":"AccessControlBadConfirmation","inputs":[]},{"type":"error","name":"AccessControlUnauthorizedAccount","inputs":[{"name":"account","type":"address","internalType":"address"},{"name":"neededRole","type":"bytes32","internalType":"bytes32"}]}],"bytecode":{"object":"0x6080346200017157601f6200236e38819003918201601f191683019291906001600160401b03841183851017620001755781606092849260409687528339810103126200017157620000518162000189565b906200006d83620000656020840162000189565b920162000189565b6206978060055560036006556001600160a01b039283169182156200013c5783169283156200010657811615620000d257620000a9906200019e565b5060018060a01b03199081600154161760015560025416176002555161213f90816200022f8239f35b835162461bcd60e51b815260206004820152600d60248201526c24b73b30b634b21030b236b4b760991b6044820152606490fd5b845162461bcd60e51b815260206004820152600f60248201526e496e76616c6964206469737075746560881b6044820152606490fd5b845162461bcd60e51b815260206004820152600e60248201526d496e76616c696420657363726f7760901b6044820152606490fd5b5f80fd5b634e487b7160e01b5f52604160045260245ffd5b51906001600160a01b03821682036200017157565b6001600160a01b03165f8181527fad3228b676f7d3cd4284a5443f17f1962b36e491b30a40b2405849e597ba5fb5602052604081205490919060ff166200022a57818052816020526040822081835260205260408220600160ff1982541617905533917f2f8788117e7eff1d82e926ec794901d17c78024a50270940304540a733656f0d8180a4600190565b509056fe6080806040526004361015610012575f80fd5b5f90813560e01c90816301ffc9a71461169f575080631186eb7c14611606578063132002fc146115e8578063248a9ca3146115bc5780632c0a3f89146112915780632f2ff15d1461125457806330427c451461123857806335e33915146108f457806336307196146111c657806336568abe1461117e57806338db6dd3146110795780634010b84e1461105057806349330cb814610fe657806349444831146108f957806352310e26146108f45780635bcfadb5146108ae5780635fcd33c1146102a55780637db096f0146102e457806386c1ff681461081057806390fe56091461064357806391d14854146105fa578063985952c014610504578063997f3ed6146104e85780639b1e7e6e146104475780639e10acf0146103e35780639ed1f25514610361578063a217fddf14610345578063a94015c81461031d578063ba7ce0c3146102e4578063be0cfcca146102c8578063c1af2148146102aa578063d4fb43a3146102a5578063d547741f14610264578063e2fdcc171461023b578063e56d8eb91461021f5763e972231b146101aa575f80fd5b3461021c57602036600319011261021c576004356101c6611774565b600181101580610211575b156101dc5760065580f35b60405162461bcd60e51b815260206004820152600d60248201526c125b9d985b1a590818dbdd5b9d609a1b6044820152606490fd5b5060148111156101d1565b80fd5b503461021c578060031936011261021c576020604051600f8152f35b503461021c578060031936011261021c576001546040516001600160a01b039091168152602090f35b503461021c57604036600319011261021c576102a1600435610284611712565b908084528360205261029c60016040862001546117cb565b611998565b5080f35b611759565b503461021c578060031936011261021c576020600654604051908152f35b503461021c578060031936011261021c57602060405160018152f35b503461021c57602036600319011261021c576020906040906001600160a01b0361030c611728565b168152600383522054604051908152f35b503461021c578060031936011261021c5760206040515f805160206120ea8339815191528152f35b503461021c578060031936011261021c57602090604051908152f35b503461021c57602036600319011261021c5760609061037e611728565b5f805160206120ea833981519152825281602052604082209060018060a01b031690815f52602052604060ff815f205416928392815260036020522054816103d7575b6040519215158352602083015215156040820152f35b601481101591506103c1565b503461021c57602036600319011261021c57604060a091600435815260046020522060ff600182015416906003810154906004810154600960ff60088401541692015492604051941515855260208501526040840152151560608301526080820152f35b503461021c57602036600319011261021c57610461611728565b610469611774565b5f805160206120ea8339815191528252816020527f76e2a13dace751fb63f20a34d961343ae3e84209bb3184537a51cc01f33642f76020604084209260018060a01b03811693845f5282526104c460ff60405f205416611a0b565b838552600382526104dd60408620918683549355611901565b50604051908152a280f35b503461021c578060031936011261021c57602060405160148152f35b503461021c57604036600319011261021c5761051e611728565b602435610529611774565b5f805160206120ea833981519152835282602052604083209160018060a01b031691825f5260205261056160ff60405f205416611a0b565b6014811015806105ef575b156105b45760407f0cd23053b7b38a6562e883a2d9d2697dd06adaafbfecf3fff8b448d645c358f591838552600360205281852090808254925582519182526020820152a280f35b60405162461bcd60e51b81526020600482015260136024820152724b61726d61206f7574206f6620626f756e647360681b6044820152606490fd5b50606481111561056c565b503461021c57604036600319011261021c576040610616611712565b91600435815280602052209060018060a01b03165f52602052602060ff60405f2054166040519015158152f35b503461021c57610652366116f8565b818352600460205260408320906001820191825460ff81166107da576008820190815461068260ff821615611a84565b62015180851015806107cd575b61069890611a45565b60025460405163180aedf360e01b815260048101899052908990829060249082906001600160a01b03165afa9081156107c2578991610794575b506005811015610780576003036107445787600461072e6020977fe280a408633821740a429fb671e01cacf8d1d70d5c2735f4f94ec0edef4ea6de998b8955600160ff1980981617905542600289015580600589015542611c1b565b958660038201550155169055604051908152a280f35b60405162461bcd60e51b81526020600482015260146024820152734e6f7420657363616c6174656420746f2044414f60601b6044820152606490fd5b634e487b7160e01b89526021600452602489fd5b6107b091503d808b833e6107a88183611aec565b810190611b2f565b5050505050509450505050505f6106d2565b6040513d8b823e3d90fd5b5062278d0085111561068f565b60405162461bcd60e51b815260206004820152600e60248201526d416c72656164792061637469766560901b6044820152606490fd5b503461021c57602036600319011261021c5761082a611728565b610832611774565b5f805160206120ea833981519152825281602052610873604083209160018060a01b03811692835f5260205261086e60ff60405f205416611a0b565b611901565b5080825260036020527f98a7f87f8e2aa2f23f43769eff67782bb12946384b142d1ce1e8e38e05d9a3e660206040842054604051908152a280f35b503461021c57602036600319011261021c576004356108cb611774565b62015180811015806108e7575b6108e190611a45565b60055580f35b5062278d008111156108d8565b61173e565b503461021c57602036600319011261021c5760043581526004602052604081206001810160ff81541615610fb4576003820154421115610f7857600882019061094660ff83541615611a84565b6004830154926006548410610f405761095e81611ccf565b91600982019483865561097081611c75565b9087805b86838210610f0e5750505b818110610e925750906109959160011c90611ca7565b5193600a83019480865580600381020460031481151715610e7e57600f600382021115610e7557600302945b85600b850155875b6004850154811015610a685780610a13918a526007860160205260408a206109fd6109f8896001840154611eae565b6120ba565b90816004820155898211610a18575b5050611c3c565b6109c9565b60038101805460ff19166001179055875490546040519283526001600160a01b0316917f80e1f1af3e99cac83d662c7900ed3d8949533f59a5ea39f6e6399911bbf6551390602090a35f80610a0c565b509287929387845b6004840154811015610be057808652600784016020526040862060018060a01b038154169081885260036020526040882054809160ff6003820154165f14610b7357610ac26004606492015480611c4a565b04601e808211610b6b575b50601481018111610b5757610b04949392919060148101821115610b4e57610af491611ec6565b818103610b09575b505050611c3c565b610a70565b7ffd2bad45540da3a7d6889882cf24e970fe5a53d8628841be7adf7efbd358f43c91604091848c52600360205280838d205582519182526020820152a2888080610afc565b50506014610af4565b634e487b7160e01b8a52601160045260248afd5b90508b610acd565b6004600a910154111580610bd6575b610b93575b90610b04939291610af4565b60038101809111610bc257610b04939291906064808211610bba575b509091929350610b87565b90508b610baf565b634e487b7160e01b89526011600452602489fd5b5060648110610b82565b50600254835460405163180aedf360e01b81526004810182905295879590928991908790899060249082906001600160a01b03165afa8015610e6a578788998992610e3f575b5086549960648b810311610b5757610c3e8b84611c4a565b606490049a606403610c509084611c4a565b6064900483610c608d8396611ec6565b91610c6a91611ec6565b610c7391611c1b565b958b610dc5575b505088995081610d41575b5050600192610c9391611ed3565b60ff19908181541690558254161790555490546040519082825260208201527fd8248889ca278e02513ea68d06d01e5babdb5b5cf669ca33587ca9c7b07f8ebf604060043592a26002546001600160a01b031690813b15610d3d578291604483926040519485938492631451c41d60e11b8452600435600485015260248401525af18015610d3257610d225750f35b610d2b90611ac4565b61021c5780f35b6040513d84823e3d90fd5b5050fd5b6001548354906001600160a01b0316803b15610dc1576040516367343c0960e11b81526001600160a01b03939093166004840152602483019390935260448201529088908290606490829084905af1908115610db657889115610c8557610da790611ac4565b610db2578689610c85565b8680fd5b6040513d8a823e3d90fd5b8a80fd5b6001546001600160a01b031690813b15610e3b576040516367343c0960e11b81526001600160a01b03939093166004840152602483019c909c52604482019b909b529989908b90606490829084905af180156107c257610e27575b8980610c7a565b979098610e3390611ac4565b968890610e20565b8b80fd5b915050610e579198503d8089833e6107a88183611aec565b505050505050509a93505098908a610c26565b6040513d89823e3d90fd5b50600f946109c1565b634e487b7160e01b88526011600452602488fd5b60018101808211610b57575b828110610eb45750610eaf90611c3c565b61097f565b610ed890610ec28386611ca7565b51610ecd8287611ca7565b5110610edd57611c3c565b610e9e565b610ee78186611ca7565b51610ef28487611ca7565b51610efd8388611ca7565b52610f088487611ca7565b52611c3c565b6109f8610f2f91600160408686610f39985260078c01602052200154611eae565b610f088286611ca7565b8890610974565b60405162461bcd60e51b815260206004820152601060248201526f4e6f7420656e6f75676820766f74657360801b6044820152606490fd5b60405162461bcd60e51b8152602060048201526014602482015273566f74696e67207374696c6c206f6e676f696e6760601b6044820152606490fd5b60405162461bcd60e51b815260206004820152600a6024820152694e6f742061637469766560b01b6044820152606490fd5b503461021c57604060a091610ffa366116f8565b908252600460205260078383200190825260205220600180831b03815416906001810154906002810154600460ff6003840154169201549260405194855260208501526040840152151560608301526080820152f35b503461021c578060031936011261021c576002546040516001600160a01b039091168152602090f35b503461021c5760208060031936011261117a57611094611728565b9061109d611774565b6001600160a01b03821691821561113d5782845260038252604084205461110357906110f77ff16ce2c2236e2c6e3df646f80d657bceef4cd7f3a240c47e82adfa17a5f472419284865260038352606460408720556117ec565b5060405160648152a280f35b60405162461bcd60e51b8152600481018390526012602482015271105b1c9958591e481c9959da5cdd195c995960721b6044820152606490fd5b60405162461bcd60e51b8152600481018390526015602482015274496e76616c696420766f746572206164647265737360581b6044820152606490fd5b5080fd5b503461021c57604036600319011261021c57611198611712565b336001600160a01b038216036111b4576102a190600435611998565b60405163334bd91960e11b8152600490fd5b503461021c57602036600319011261021c576020906111e3611728565b5f805160206120ea833981519152825281835260408083206001600160a01b03909216835290835281205460ff169081611223575b506040519015158152f35b6014915060409060038452205410155f611218565b503461021c578060031936011261021c576020604051601e8152f35b503461021c57604036600319011261021c576102a1600435611274611712565b908084528360205261128c60016040862001546117cb565b61188a565b503461021c576112a0366116f8565b905f805160206120ea833981519152808452602084815260408520338652815260ff6040862054161561159d57828552600481526040852060ff60018201541615611564576003810154421161153057600681019233875283835260ff6040882054166114fb57606486116114c15733875260038352601460408820541061148757865285825260408620338752825260ff6040872054161561144d573386526003825260408620549260405160a0810181811067ffffffffffffffff82111761143957908893929160405233815260048582019389855260408301888152606084019587875260076080860193898552858101998a54905201895260408d209460018060a01b039051166bffffffffffffffffffffffff60a01b86541617855551600185015551600284015560038301945115159460ff199560ff878354169116179055519101553388528352600160408820918254161790556114058154611c3c565b90556040519384528301527f0271f53eebbe20450d9578f28ec279231556c34545b30e2278d754ffd39cd63c60403393a380f35b634e487b7160e01b89526041600452602489fd5b60405162461bcd60e51b8152600481018390526012602482015271159bdd195c881c9bdb19481c995d9bdad95960721b6044820152606490fd5b60405162461bcd60e51b8152600481018490526012602482015271496e73756666696369656e74206b61726d6160701b6044820152606490fd5b60405162461bcd60e51b8152600481018490526012602482015271496e76616c69642070657263656e7461676560701b6044820152606490fd5b60405162461bcd60e51b815260048101849052600d60248201526c105b1c9958591e481d9bdd1959609a1b6044820152606490fd5b60405162461bcd60e51b815260048101839052600c60248201526b159bdd1a5b99c8195b99195960a21b6044820152606490fd5b60405162461bcd60e51b8152600481018390526011602482015270566f74696e67206e6f742061637469766560781b6044820152606490fd5b60405163e2517d3f60e01b815233600482015260248101839052604490fd5b503461021c57602036600319011261021c57600160406020926004358152808452200154604051908152f35b503461021c578060031936011261021c576020600554604051908152f35b503461021c57602036600319011261021c57604061014091600435815260046020522080549060ff6001820154169060028101546003820154600483015460058401549060ff60088601541692600986015494600b600a88015497015497604051998a52151560208a015260408901526060880152608087015260a0860152151560c085015260e0840152610100830152610120820152f35b90503461117a57602036600319011261117a5760043563ffffffff60e01b81168091036116f45760209250637965db0b60e01b81149081156116e3575b5015158152f35b6301ffc9a760e01b1490505f6116dc565b8280fd5b604090600319011261170e576004359060243590565b5f80fd5b602435906001600160a01b038216820361170e57565b600435906001600160a01b038216820361170e57565b3461170e575f36600319011261170e57602060405160038152f35b3461170e575f36600319011261170e57602060405160648152f35b335f9081527fad3228b676f7d3cd4284a5443f17f1962b36e491b30a40b2405849e597ba5fb5602052604081205460ff16156117ad5750565b6044906040519063e2517d3f60e01b82523360048301526024820152fd5b805f525f60205260405f20335f5260205260ff60405f205416156117ad5750565b6001600160a01b03165f8181527f93a066048dd46c0013bcf15fce7fac0b14d59579093552751e1561f815b6758760205260408120549091905f805160206120ea8339815191529060ff1661188557808352826020526040832082845260205260408320600160ff198254161790557f2f8788117e7eff1d82e926ec794901d17c78024a50270940304540a733656f0d339380a4600190565b505090565b905f9180835282602052604083209160018060a01b03169182845260205260ff604084205416155f1461188557808352826020526040832082845260205260408320600160ff198254161790557f2f8788117e7eff1d82e926ec794901d17c78024a50270940304540a733656f0d339380a4600190565b6001600160a01b03165f8181527f93a066048dd46c0013bcf15fce7fac0b14d59579093552751e1561f815b6758760205260408120549091905f805160206120ea8339815191529060ff16156118855780835282602052604083208284526020526040832060ff1981541690557ff6391f5c32d9c69d2a47ea670b442974b53935d1edc7fd64eb21e047a839171b339380a4600190565b905f9180835282602052604083209160018060a01b03169182845260205260ff6040842054165f146118855780835282602052604083208284526020526040832060ff1981541690557ff6391f5c32d9c69d2a47ea670b442974b53935d1edc7fd64eb21e047a839171b339380a4600190565b15611a1257565b60405162461bcd60e51b815260206004820152600b60248201526a2737ba1030903b37ba32b960a91b6044820152606490fd5b15611a4c57565b60405162461bcd60e51b815260206004820152601060248201526f24b73b30b634b210323ab930ba34b7b760811b6044820152606490fd5b15611a8b57565b60405162461bcd60e51b8152602060048201526011602482015270105b1c9958591e48199a5b985b1a5e9959607a1b6044820152606490fd5b67ffffffffffffffff8111611ad857604052565b634e487b7160e01b5f52604160045260245ffd5b90601f8019910116810190811067ffffffffffffffff821117611ad857604052565b51906001600160a01b038216820361170e57565b5190811515820361170e57565b6101808183031261170e57805192602091611b4b838201611b0e565b93611b5860408301611b0e565b9360608301519360808401519360a0810151600581101561170e579360c08201519360e083015167ffffffffffffffff9081811161170e57840183601f8201121561170e578051918211611ad85760405193611bbd601f8401601f1916850186611aec565b82855283838301011161170e575f5b828110611c08575050905f91830101529161010082015191611bf16101208201611b22565b91610160611c026101408401611b22565b92015190565b8181018401518582018501528301611bcc565b91908201809211611c2857565b634e487b7160e01b5f52601160045260245ffd5b5f198114611c285760010190565b81810292918115918404141715611c2857565b67ffffffffffffffff8111611ad85760051b60200190565b90611c7f82611c5d565b611c8c6040519182611aec565b8281528092611c9d601f1991611c5d565b0190602036910137565b8051821015611cbb5760209160051b010190565b634e487b7160e01b5f52603260045260245ffd5b6004808201548015611e7f57611ce481611c75565b91611cee82611c75565b935f5b838110611e405750505f5b828110611d8b5750505f805b828110611d6e575060011c5f805b838210611d3257505050611d2e925060011c90611ca7565b5190565b611d4790611d408388611ca7565b5190611c1b565b9082821015611d5f57611d5990611c3c565b90611d16565b9392505050611d2e9250611ca7565b90611d80611d8691611d408488611ca7565b91611c3c565b611d08565b60018101808211611e2d575b838110611dad5750611da890611c3c565b611cfc565b611dd190611dbb8387611ca7565b51611dc68288611ca7565b5110611dd657611c3c565b611d97565b611de08187611ca7565b51611deb8488611ca7565b51611df68389611ca7565b52611e018488611ca7565b52611e0c8188611ca7565b51611e178489611ca7565b51611e22838a611ca7565b52610f088489611ca7565b601183634e487b7160e01b5f525260245ffd5b611e7a90600260078401825f526020908082526040916001835f200154611e67868c611ca7565b52845f52525f200154610f088289611ca7565b611cf1565b60405162461bcd60e51b815260208184015260086024820152674e6f20766f74657360c01b6044820152606490fd5b81810392915f138015828513169184121617611c2857565b91908203918211611c2857565b81156120b6575f92835b6004830154811015611f2e57805f526007830160205260405f2060ff60038201541615611f14575b50611f0f90611c3c565b611edd565b611f0f91956002611f2792015490611c1b565b9490611f05565b50918315918261207f575f5b60048083015482101561207657815f52602090600784018252604091825f209160ff60038401541615611f7a575b50505050611f7590611c3c565b611f3a565b87611f89600285015489611c4a565b90612063578a90049081611f9e575b50611f68565b600154845488546001600160a01b03939092918416918416803b1561170e5788516367343c0960e11b81526001600160a01b0390931691830191825260208201869052604082019390935290915f9183919082908490829060600103925af1801561205957917f42affc57c2b30e1ac5957640cfb86fcd839a295d2ec7eed57db385dd03aecd2c9391611f75989796959361204a575b5088549454169451908152a3905f808080611f98565b61205390611ac4565b5f612034565b86513d5f823e3d90fd5b601282634e487b7160e01b5f525260245ffd5b50505050509050565b60405162461bcd60e51b815260206004820152600f60248201526e4e6f2076616c696420766f7465727360881b6044820152606490fd5b5050565b5f8082126120c6575090565b600160ff1b82146120d5570390565b634e487b7160e01b81526011600452602490fdfe72c3eec1760bf69946625c2d4fb8e44e2c806345041960b434674fb9ab3976cfa2646970667358221220f1fab806f1154cbfb1d054cbf67ebb450a0ee3d7786033cd7156465cf11c6da364736f6c63430008140033","linkReferences":{}},"methodIdentifiers":{"DEFAULT_ADMIN_ROLE()":"a217fddf","EXCELLENT_REWARD()":"35e33915","GOOD_REWARD()":"be0cfcca","MAD_MULTIPLIER()":"52310e26","MAX_KARMA()":"5fcd33c1","MAX_KARMA_LOSS()":"30427c45","MIN_DEVIATION_THRESHOLD()":"e56d8eb9","MIN_KARMA()":"997f3ed6","STARTING_KARMA()":"d4fb43a3","VOTER_ROLE()":"a94015c8","adjustVoterKarma(address,uint256)":"985952c0","banVoter(address)":"9b1e7e6e","castVote(uint256,uint256)":"2c0a3f89","disputeContract()":"4010b84e","escrow()":"e2fdcc17","finalizeVoting(uint256)":"49444831","getRoleAdmin(bytes32)":"248a9ca3","getSessionInfo(uint256)":"9e10acf0","getVote(uint256,uint256)":"49330cb8","getVoterInfo(address)":"9ed1f255","getVoterKarma(address)":"7db096f0","grantRole(bytes32,address)":"2f2ff15d","hasRole(bytes32,address)":"91d14854","isActiveVoter(address)":"36307196","minVotersRequired()":"c1af2148","registerVoter(address)":"38db6dd3","removeVoter(address)":"86c1ff68","renounceRole(bytes32,address)":"36568abe","revokeRole(bytes32,address)":"d547741f","setMinVotersRequired(uint256)":"e972231b","setVotingDuration(uint256)":"5bcfadb5","startVoting(uint256,uint256)":"90fe5609","supportsInterface(bytes4)":"01ffc9a7","voterKarma(address)":"ba7ce0c3","votingDuration()":"132002fc","votingSessions(uint256)":"1186eb7c"},"id":31}