{"abi":[{"type":"constructor","inputs":[{"name":"_escrowAddress","type":"address","internalType":"address"},{"name":"_admin","type":"address","internalType":"address"}],"stateMutability":"nonpayable"},{"type":"function","name":"AI_AGENT_ROLE","inputs":[],"outputs":[{"name":"","type":"bytes32","internalType":"bytes32"}],"stateMutability":"view"},{"type":"function","name":"DEFAULT_ADMIN_ROLE","inputs":[],"outputs":[{"name":"","type":"bytes32","internalType":"bytes32"}],"stateMutability":"view"},{"type":"function","name":"acceptAIVerdict","inputs":[{"name":"_jobId","type":"uint256","internalType":"uint256"}],"outputs":[],"stateMutability":"nonpayable"},{"type":"function","name":"checkAIDeadline","inputs":[{"name":"_jobId","type":"uint256","internalType":"uint256"}],"outputs":[],"stateMutability":"nonpayable"},{"type":"function","name":"createJob","inputs":[{"name":"_contractor","type":"address","internalType":"address"},{"name":"_amount","type":"uint256","internalType":"uint256"}],"outputs":[],"stateMutability":"nonpayable"},{"type":"function","name":"daoContract","inputs":[],"outputs":[{"name":"","type":"address","internalType":"address"}],"stateMutability":"view"},{"type":"function","name":"escrow","inputs":[],"outputs":[{"name":"","type":"address","internalType":"contract TFAEscrow"}],"stateMutability":"view"},{"type":"function","name":"feePercentage","inputs":[],"outputs":[{"name":"","type":"uint256","internalType":"uint256"}],"stateMutability":"view"},{"type":"function","name":"getRoleAdmin","inputs":[{"name":"role","type":"bytes32","internalType":"bytes32"}],"outputs":[{"name":"","type":"bytes32","internalType":"bytes32"}],"stateMutability":"view"},{"type":"function","name":"grantRole","inputs":[{"name":"role","type":"bytes32","internalType":"bytes32"},{"name":"account","type":"address","internalType":"address"}],"outputs":[],"stateMutability":"nonpayable"},{"type":"function","name":"hasRole","inputs":[{"name":"role","type":"bytes32","internalType":"bytes32"},{"name":"account","type":"address","internalType":"address"}],"outputs":[{"name":"","type":"bool","internalType":"bool"}],"stateMutability":"view"},{"type":"function","name":"jobs","inputs":[{"name":"","type":"uint256","internalType":"uint256"}],"outputs":[{"name":"id","type":"uint256","internalType":"uint256"},{"name":"client","type":"address","internalType":"address"},{"name":"contractor","type":"address","internalType":"address"},{"name":"contractAmount","type":"uint256","internalType":"uint256"},{"name":"feeAmount","type":"uint256","internalType":"uint256"},{"name":"state","type":"uint8","internalType":"enum TFADispute.JobState"},{"name":"aiContractorPercent","type":"uint256","internalType":"uint256"},{"name":"aiExplanation","type":"string","internalType":"string"},{"name":"aiVerdictTimestamp","type":"uint256","internalType":"uint256"},{"name":"clientAcceptedAI","type":"bool","internalType":"bool"},{"name":"contractorAcceptedAI","type":"bool","internalType":"bool"},{"name":"aiAcceptanceDeadline","type":"uint256","internalType":"uint256"}],"stateMutability":"view"},{"type":"function","name":"nextJobId","inputs":[],"outputs":[{"name":"","type":"uint256","internalType":"uint256"}],"stateMutability":"view"},{"type":"function","name":"raiseDispute","inputs":[{"name":"_jobId","type":"uint256","internalType":"uint256"}],"outputs":[],"stateMutability":"nonpayable"},{"type":"function","name":"rejectAIVerdict","inputs":[{"name":"_jobId","type":"uint256","internalType":"uint256"}],"outputs":[],"stateMutability":"nonpayable"},{"type":"function","name":"releaseToContractor","inputs":[{"name":"_jobId","type":"uint256","internalType":"uint256"}],"outputs":[],"stateMutability":"nonpayable"},{"type":"function","name":"renounceRole","inputs":[{"name":"role","type":"bytes32","internalType":"bytes32"},{"name":"callerConfirmation","type":"address","internalType":"address"}],"outputs":[],"stateMutability":"nonpayable"},{"type":"function","name":"resolveFromDAO","inputs":[{"name":"_jobId","type":"uint256","internalType":"uint256"},{"name":"_contractorPercent","type":"uint256","internalType":"uint256"}],"outputs":[],"stateMutability":"nonpayable"},{"type":"function","name":"revokeRole","inputs":[{"name":"role","type":"bytes32","internalType":"bytes32"},{"name":"account","type":"address","internalType":"address"}],"outputs":[],"stateMutability":"nonpayable"},{"type":"function","name":"setDAOContract","inputs":[{"name":"_daoContract","type":"address","internalType":"address"}],"outputs":[],"stateMutability":"nonpayable"},{"type":"function","name":"setFeePercentage","inputs":[{"name":"_feePercentage","type":"uint256","internalType":"uint256"}],"outputs":[],"stateMutability":"nonpayable"},{"type":"function","name":"submitAIVerdict","inputs":[{"name":"_jobId","type":"uint256","internalType":"uint256"},{"name":"_contractorPercent","type":"uint256","internalType":"uint256"},{"name":"_explanation","type":"string","internalType":"string"}],"outputs":[],"stateMutability":"nonpayable"},{"type":"function","name":"supportsInterface","inputs":[{"name":"interfaceId","type":"bytes4","internalType":"bytes4"}],"outputs":[{"name":"","type":"bool","internalType":"bool"}],"stateMutability":"view"},{"type":"event","name":"AIVerdictAccepted","inputs":[{"name":"id","type":"uint256","indexed":true,"internalType":"uint256"},{"name":"acceptedBy","type":"address","indexed":false,"internalType":"address"}],"anonymous":false},{"type":"event","name":"AIVerdictIssued","inputs":[{"name":"id","type":"uint256","indexed":true,"internalType":"uint256"},{"name":"contractorPercent","type":"uint256","indexed":false,"internalType":"uint256"},{"name":"explanation","type":"string","indexed":false,"internalType":"string"}],"anonymous":false},{"type":"event","name":"AIVerdictRejected","inputs":[{"name":"id","type":"uint256","indexed":true,"internalType":"uint256"},{"name":"rejectedBy","type":"address","indexed":false,"internalType":"address"}],"anonymous":false},{"type":"event","name":"DisputeRaised","inputs":[{"name":"id","type":"uint256","indexed":true,"internalType":"uint256"},{"name":"raisedBy","type":"address","indexed":false,"internalType":"address"}],"anonymous":false},{"type":"event","name":"DisputeResolved","inputs":[{"name":"id","type":"uint256","indexed":true,"internalType":"uint256"},{"name":"finalContractorPercent","type":"uint256","indexed":false,"internalType":"uint256"}],"anonymous":false},{"type":"event","name":"EscalatedToDAO","inputs":[{"name":"id","type":"uint256","indexed":true,"internalType":"uint256"}],"anonymous":false},{"type":"event","name":"FundsReleased","inputs":[{"name":"id","type":"uint256","indexed":true,"internalType":"uint256"},{"name":"to","type":"address","indexed":false,"internalType":"address"},{"name":"amount","type":"uint256","indexed":false,"internalType":"uint256"}],"anonymous":false},{"type":"event","name":"JobCreated","inputs":[{"name":"id","type":"uint256","indexed":true,"internalType":"uint256"},{"name":"client","type":"address","indexed":false,"internalType":"address"},{"name":"contractor","type":"address","indexed":false,"internalType":"address"},{"name":"amount","type":"uint256","indexed":false,"internalType":"uint256"},{"name":"feeAmount","type":"uint256","indexed":false,"internalType":"uint256"}],"anonymous":false},{"type":"event","name":"RoleAdminChanged","inputs":[{"name":"role","type":"bytes32","indexed":true,"internalType":"bytes32"},{"name":"previousAdminRole","type":"bytes32","indexed":true,"internalType":"bytes32"},{"name":"newAdminRole","type":"bytes32","indexed":true,"internalType":"bytes32"}],"anonymous":false},{"type":"event","name":"RoleGranted","inputs":[{"name":"role","type":"bytes32","indexed":true,"internalType":"bytes32"},{"name":"account","type":"address","indexed":true,"internalType":"address"},{"name":"sender","type":"address","indexed":true,"internalType":"address"}],"anonymous":false},{"type":"event","name":"RoleRevoked","inputs":[{"name":"role","type":"bytes32","indexed":true,"internalType":"bytes32"},{"name":"account","type":"address","indexed":true,"internalType":"address"},{"name":"sender","type":"address","indexed":true,"internalType":"address"}],"anonymous":false},{"type":"error","name":"AccessControlBadConfirmation","inputs":[]},{"type":"error","name":"AccessControlUnauthorizedAccount","inputs":[{"name":"account","type":"address","internalType":"address"},{"name":"neededRole","type":"bytes32","internalType":"bytes32"}]}],"bytecode":{"object":"0x6080346200013457601f62001ec938819003918201601f19168301916001600160401b038311848410176200013857808492604094855283398101031262000134576200005a602062000052836200014c565b92016200014c565b60056004556001600160a01b03918216918215620000ef57811615620000aa57620000859062000161565b50600180546001600160a01b031916919091179055604051611cd79081620001f28239f35b60405162461bcd60e51b815260206004820152601560248201527f496e76616c69642041646d696e204164647265737300000000000000000000006044820152606490fd5b60405162461bcd60e51b815260206004820152601660248201527f496e76616c696420457363726f772041646472657373000000000000000000006044820152606490fd5b5f80fd5b634e487b7160e01b5f52604160045260245ffd5b51906001600160a01b03821682036200013457565b6001600160a01b03165f8181527fad3228b676f7d3cd4284a5443f17f1962b36e491b30a40b2405849e597ba5fb5602052604081205490919060ff16620001ed57818052816020526040822081835260205260408220600160ff1982541617905533917f2f8788117e7eff1d82e926ec794901d17c78024a50270940304540a733656f0d8180a4600190565b509056fe6080806040526004361015610012575f80fd5b5f90813560e01c90816301ffc9a7146118c757508063180aedf3146116fc578063248a9ca3146116d057806325b8e7eb1461169557806328a3883a146114995780632f2ff15d1461145c57806336568abe146114145780633f2a66f814610ec6578063425d512a14610e3f5780634573182514610d885780634a7ffcbc14610d5f57806356474fda146109bf57806391d1485414610976578063a001ecdd14610958578063a217fddf1461093c578063a5c1674e14610880578063ae06c1b714610821578063b0c2aa5e14610803578063b92dfe5c14610543578063c871bba914610246578063d547741f14610205578063e2fdcc17146101dc5763ee27b0511461011b575f80fd5b346101d95760203660031901126101d95760043580825260056020526040822060ff60058201541660058110156101c5576101b1929161016060026101819314611c11565b6001810154336001600160a01b03918216149182156101b4575b5050611b98565b807f0a7ce6dbbd6c5d67646e741dcf6160daf669fa4dd891cdcea6a3e0a7d44093be6020604051338152a2611c61565b80f35b600291925001541633145f8061017a565b634e487b7160e01b84526021600452602484fd5b80fd5b50346101d957806003193601126101d9576001546040516001600160a01b039091168152602090f35b50346101d95760403660031901126101d95761024260043561022561196c565b908084528360205261023d60016040862001546119d5565b611a72565b5080f35b50346101d95760603660031901126101d95767ffffffffffffffff806044351161053f5736602360443501121561053f5760443560040135116101d957366024604435600401356044350101116101d957335f9081527fe2cba31f4bc11a0ffdcf6285f6faa577a0ac170ef92004a78f001343d31b3b9760205260409020547ffaa623ff490ff9197b5ad863cd7f72b33e2e131994d09bd7260d7cd680faad799060ff16156105215750600435815260056020526040812060ff600582015416600581101561050d576001036104d95761032560646024351115611bd0565b602435600682015561034d604435600401356103446007840154611920565b60078401611b0c565b81601f604435600401351160011461044f5782906044356004013561043f575b506044356004013560011b905f196044356004013560031b1c19161760078201555b4260088201556203f480420180421161042b57600a820155600501805460ff19166002179055604080516024803582526020820183905260046044359081013593830184905291929101606083013781606060443560040135830101527f5b58478de3fe42765ad57b5548bfd75423040365ed395ed16ae9d7a88005a04c60043591606081601f19601f6044356004013501168101030190a280f35b634e487b7160e01b83526011600452602483fd5b602491506044350101355f61036d565b6007820183526020832090835b60046044350135601f191681106104bc575060046044350135601f19811610610498575b5050600160443560040135811b01600782015561038f565b60245f1960f86044356004013560031b161c19916044350101351690555f80610480565b90916020600181926024866044350101358155019301910161045c565b60405162461bcd60e51b815260206004820152600c60248201526b139bdd08191a5cdc1d5d195960a21b6044820152606490fd5b634e487b7160e01b83526021600452602483fd5b6044906040519063e2517d3f60e01b82523360048301526024820152fd5b5080fd5b50346101d95760203660031901126101d9576004358082526005602052604082206001810180546001600160a01b039493929190851690338290036107d057600583019586549660ff881660058110156107bc5787986105a560049215611b5f565b60ff1916179055600284019160048683855416966106566003820154938492848b6040518061060c7f6e3c6096795c8298a218b2cfb8bde42726ff7c9a3d27b4d3ba41ab7f74feb5fb9889948360209093929193604081019460018060a01b031681520152565b0390a2018054604080516001600160a01b039b909b168b5260208b01829052919990918591859190a2604080516001600160a01b038c168152602081019290925290918291820190565b0390a28260015416803b15610795576040516367343c0960e11b8082526001600160a01b0398909816600482015260248101929092526044820188905288908290606490829084905af19081156107b1578891610799575b50508180600154169154168454823b15610795576040518781526001600160a01b039290921660048301526024820152604481018790529087908290606490829084905af190811561078a578791610776575b50508060015416915416915491813b15610772576040519384526001600160a01b03166004840152602483019190915260448201929092529082908290818381606481015b03925af18015610767576107575750f35b61076090611958565b6101d95780f35b6040513d84823e3d90fd5b8580fd5b61077f90611958565b61077257855f610701565b6040513d89823e3d90fd5b8880fd5b6107a290611958565b6107ad57865f6106ae565b8680fd5b6040513d8a823e3d90fd5b634e487b7160e01b88526021600452602488fd5b60405162461bcd60e51b815260206004820152600b60248201526a13db9b1e4818db1a595b9d60aa1b6044820152606490fd5b50346101d957806003193601126101d9576020600354604051908152f35b50346101d95760203660031901126101d95760043561083e61199c565b6014811161084c5760045580f35b60405162461bcd60e51b815260206004820152600c60248201526b08ccaca40e8dede40d0d2ced60a31b6044820152606490fd5b50346101d95760203660031901126101d957600435808252600560208190526040832060018101546108c790336001600160a01b039182161490811561092c575b50611b98565b01805460ff8116600581101561091857906108e460019215611b5f565b60ff19161790557f84a477df8a28a4276ca6dee4458a06c3015f30c477d9c949ede4e13ff8a552b46020604051338152a280f35b634e487b7160e01b85526021600452602485fd5b905060028301541633145f6108c1565b50346101d957806003193601126101d957602090604051908152f35b50346101d957806003193601126101d9576020600454604051908152f35b50346101d95760403660031901126101d957604061099261196c565b91600435815280602052209060018060a01b03165f52602052602060ff60405f2054166040519015158152f35b50346101d957602090816003193601126101d957600435808252600583526040822060ff60058201541660058110156101c55760026109fe9114611c11565b60018181015490916001600160a01b039182163314808015610d50575b610a2490611b98565b600a8201544211610d0b578596916009915f14610cf657808201805460ff1916861790555b857fb4af1acd00eae71f2f939f9c556b563ec903042556251c9795f3787969ae874b84604051338152a2015460ff81169081610ce8575b50610a89578480f35b83855260058152604085209060058201600460ff198254161790556003820154857fb4121f1f91a696a3fc75f6d151f3c9865abffa0738bda595e71c381c02af2faa600685015493610ae86064610ae08787611ae5565b048095611c54565b94604051908152a280610c72575b5080610bea575b508183541691808483015416936004830193845490803b15610795576040516367343c0960e11b8082526001600160a01b0398909816600482015260248101929092526044820188905288908290606490829084905af180156107b15783918991610bd3575b5050600291541692015416915491813b15610772576040519384526001600160a01b03166004840152602483019190915260448201929092529082908290818381606481015b03925af1801561076757610bbf575b8080808480f35b610bc890611958565b6101d957805f610bb8565b610bde919250611958565b6107ad5781875f610b63565b8284541690838584015416823b15610c6e576040516367343c0960e11b81526001600160a01b039190911660048201526024810191909152604481018690529086908290606490829084905af1908115610c63578691610c4b575b50610afd565b610c5490611958565b610c5f57845f610c45565b8480fd5b6040513d88823e3d90fd5b8780fd5b838554169084600285015416823b15610795576040516367343c0960e11b81526001600160a01b039190911660048201526024810191909152604481018790529087908290606490829084905af190811561078a578791610cd4575b50610af6565b610cdd90611958565b61077257855f610cce565b60ff915060081c165f610a80565b808201805461ff001916610100179055610a49565b60405162461bcd60e51b815260048101889052601a60248201527f416363657074616e636520646561646c696e65207061737365640000000000006044820152606490fd5b50600282015483163314610a1b565b50346101d957806003193601126101d9576002546040516001600160a01b039091168152602090f35b50346101d95760203660031901126101d95760043580825260056020526040822060ff60058201541660058110156101c5576002610dc69114611c11565b600a810154421115610e04576009015460ff811615908115610df5575b50610dec575080f35b6101b190611c61565b60ff915060081c16155f610de3565b60405162461bcd60e51b8152602060048201526013602482015272111958591b1a5b99481b9bdd081c185cdcd959606a1b6044820152606490fd5b50346101d95760203660031901126101d957610e59611986565b610e6161199c565b6001600160a01b03168015610e8b576bffffffffffffffffffffffff60a01b600254161760025580f35b60405162461bcd60e51b8152602060048201526013602482015272496e76616c69642044414f204164647265737360681b6044820152606490fd5b50346101d95760403660031901126101d957610ee0611986565b906001600160a01b038216156113da576001600160a01b038216331461139e5760243515611364576003545f19811461135057600181016003556064610f2a600454602435611ae5565b049062989680821061131b5760405193610180850185811067ffffffffffffffff8211176113075760405281855233602086015260018060a01b038116604086015260243560608601528260808601528360a08601528360c086015260405180602081011067ffffffffffffffff602083011117611307576020810160405284815260e086015283610100860152836101208601528361014086015283610160860152818452600560205260408420855181556001810160018060a01b03602088015116906bffffffffffffffffffffffff60a01b9182825416179055600282019060018060a01b036040890151169082541617905560608601516003820155608086015160048201556005810160a087015160058110156112f35760ff8019835416911617905560c0860151600682015560e086015195865167ffffffffffffffff81116112df5761108d816110846007860154611920565b60078601611b0c565b6020601f821160011461126d57918161016092600a948a9b8b92611262575b50508160011b915f199060031b1c19161760078501555b6101008101516008850155600984016101208201511515815460ff61ff00610140860151151560081b1692169061ffff1916171790550151910155817f9f708ef692516d5076ae0cb779688ef01c75caad86fb2e2fa1b80612ee7e64a4608060405133815260018060a01b03851660208201526024356040820152866060820152a26001546001600160a01b031691823b15610c5f5760405185816084818362d5543960e31b9889835287600484015233602484015260243560448401525f60648401525af1908115610c6357869161124e575b50506001546001600160a01b0316803b15610772576040518481526004810183905233602482015260448101869052600160648201529086908290608490829084905af1908115610c6357869161123a575b50506001546001600160a01b031690813b156107725760405193845260048401526001600160a01b039091166024830152604482019290925260016064820152908290829081838160848101610746565b61124390611958565b610c5f57845f6111e9565b61125790611958565b610c5f57845f611197565b015190505f806110ac565b6007840188526020882098885b601f19841681106112c7575082899a600a959360019361016096601f198116106112af575b505050811b0160078501556110c3565b01515f1960f88460031b161c191690555f808061129f565b828201518b556001909a01996020928301920161127a565b634e487b7160e01b87526041600452602487fd5b634e487b7160e01b87526021600452602487fd5b634e487b7160e01b5f52604160045260245ffd5b60405162461bcd60e51b815260206004820152600d60248201526c119959481d1bdbc81cdb585b1b609a1b6044820152606490fd5b634e487b7160e01b82526011600452602482fd5b60405162461bcd60e51b81526020600482015260126024820152710416d6f756e74206d757374206265203e20360741b6044820152606490fd5b60405162461bcd60e51b815260206004820152601460248201527321b0b73737ba103434b932903cb7bab939b2b63360611b6044820152606490fd5b60405162461bcd60e51b815260206004820152601260248201527124b73b30b634b21021b7b73a3930b1ba37b960711b6044820152606490fd5b50346101d95760403660031901126101d95761142e61196c565b336001600160a01b0382160361144a5761024290600435611a72565b60405163334bd91960e11b8152600490fd5b50346101d95760403660031901126101d95761024260043561147c61196c565b908084528360205261149460016040862001546119d5565b6119f6565b50346101d95760403660031901126101d9576002546001600160a01b03919060243590600435908416330361165c578083526005602052604083209060058201805460ff811660058110156112f357600303611627576004906114ff6064871115611bd0565b60ff1916179055600382015494817fb4121f1f91a696a3fc75f6d151f3c9865abffa0738bda595e71c381c02af2faa6020611547606461153f898c611ae5565b04809a611c54565b96604051908152a2856115ae575b84955083611561578480f35b6001818154169301541691803b15610c5f576040516367343c0960e11b81526001600160a01b03909316600484015260248301939093526044820152908290829081838160648101610ba9565b80600154169581600285015416873b156107ad576040516367343c0960e11b81526001600160a01b039190911660048201526024810191909152604481018390529585908790606490829084905af1801561161c57156115555793909461161490611958565b928490611555565b6040513d87823e3d90fd5b60405162461bcd60e51b815260206004820152600d60248201526c139bdd08195cd8d85b185d1959609a1b6044820152606490fd5b60405162461bcd60e51b815260206004820152601160248201527013db9b1e48111053c818dbdb9d1c9858dd607a1b6044820152606490fd5b50346101d957806003193601126101d95760206040517ffaa623ff490ff9197b5ad863cd7f72b33e2e131994d09bd7260d7cd680faad798152f35b50346101d95760203660031901126101d957600160406020926004358152808452200154604051908152f35b50346101d95760203660031901126101d957600435815260056020526040812080549160018060a01b039081600184015416916002840154169160038401549460048501549460ff60058201541660068201549060405197869960078501549a6117658c611920565b808c529b600181169081156118a45750600114611868575b8a9b50601f809b999a9b19998a920301168b01998b8b1067ffffffffffffffff8c1117611854578a604052600886015497600a6009880154970154978c5260208c015260408b015260608a0152608089015260058110156112f35760a088015260c0870152610180928360e088015287518094880152855b84811061183d57509160ff87959492601f946101a09889868a010152610100880152818116151561012088015260081c16151561014086015261016085015201168101030190f35b80602080928b0101516101a0828b010152016117f5565b634e487b7160e01b8a52604160045260248afd5b506007850188526020882088905b8c821061188d5750999a508a998a0160200161177d565b6001818d6020858195549201015201910190611876565b60ff191660208d8101919091529b9c8d9c90151560051b8d0101915061177d9050565b90503461053f57602036600319011261053f5760043563ffffffff60e01b811680910361191c5760209250637965db0b60e01b811490811561190b575b5015158152f35b6301ffc9a760e01b1490505f611904565b8280fd5b90600182811c9216801561194e575b602083101461193a57565b634e487b7160e01b5f52602260045260245ffd5b91607f169161192f565b67ffffffffffffffff811161130757604052565b602435906001600160a01b038216820361198257565b5f80fd5b600435906001600160a01b038216820361198257565b335f9081527fad3228b676f7d3cd4284a5443f17f1962b36e491b30a40b2405849e597ba5fb5602052604081205460ff16156105215750565b805f525f60205260405f20335f5260205260ff60405f205416156105215750565b905f9180835282602052604083209160018060a01b03169182845260205260ff604084205416155f14611a6d57808352826020526040832082845260205260408320600160ff198254161790557f2f8788117e7eff1d82e926ec794901d17c78024a50270940304540a733656f0d339380a4600190565b505090565b905f9180835282602052604083209160018060a01b03169182845260205260ff6040842054165f14611a6d5780835282602052604083208284526020526040832060ff1981541690557ff6391f5c32d9c69d2a47ea670b442974b53935d1edc7fd64eb21e047a839171b339380a4600190565b81810292918115918404141715611af857565b634e487b7160e01b5f52601160045260245ffd5b90601f8111611b1a57505050565b5f91825260208220906020601f850160051c83019410611b55575b601f0160051c01915b828110611b4a57505050565b818155600101611b3e565b9092508290611b35565b15611b6657565b60405162461bcd60e51b815260206004820152600a6024820152694e6f742061637469766560b01b6044820152606490fd5b15611b9f57565b60405162461bcd60e51b81526020600482015260096024820152684e6f7420706172747960b81b6044820152606490fd5b15611bd757565b60405162461bcd60e51b8152602060048201526012602482015271496e76616c69642070657263656e7461676560701b6044820152606490fd5b15611c1857565b60405162461bcd60e51b81526020600482015260146024820152732737ba1034b71020a4903932b9b7b63aba34b7b760611b6044820152606490fd5b91908203918211611af857565b805f526005602052600560405f2001600360ff198254161790557faa1215f590266eaaa0a05274973f56be9a0bf01e40da0d93172ef1b449e70a4a5f80a256fea2646970667358221220946b069b39650c5e30f1d4eea13b43476e9b2a9951095605d6590f9307027e0d64736f6c63430008140033","linkReferences":{}},"methodIdentifiers":{"AI_AGENT_ROLE()":"25b8e7eb","DEFAULT_ADMIN_ROLE()":"a217fddf","acceptAIVerdict(uint256)":"56474fda","checkAIDeadline(uint256)":"45731825","createJob(address,uint256)":"3f2a66f8","daoContract()":"4a7ffcbc","escrow()":"e2fdcc17","feePercentage()":"a001ecdd","getRoleAdmin(bytes32)":"248a9ca3","grantRole(bytes32,address)":"2f2ff15d","hasRole(bytes32,address)":"91d14854","jobs(uint256)":"180aedf3","nextJobId()":"b0c2aa5e","raiseDispute(uint256)":"a5c1674e","rejectAIVerdict(uint256)":"ee27b051","releaseToContractor(uint256)":"b92dfe5c","renounceRole(bytes32,address)":"36568abe","resolveFromDAO(uint256,uint256)":"28a3883a","revokeRole(bytes32,address)":"d547741f","setDAOContract(address)":"425d512a","setFeePercentage(uint256)":"ae06c1b7","submitAIVerdict(uint256,uint256,string)":"c871bba9","supportsInterface(bytes4)":"01ffc9a7"},"id":32}