{"abi":[{"type":"constructor","inputs":[{"name":"_escrowAddress","type":"address","internalType":"address"},{"name":"_admin","type":"address","internalType":"address"}],"stateMutability":"nonpayable"},{"type":"function","name":"AI_AGENT_ROLE","inputs":[],"outputs":[{"name":"","type":"bytes32","internalType":"bytes32"}],"stateMutability":"view"},{"type":"function","name":"DEFAULT_ADMIN_ROLE","inputs":[],"outputs":[{"name":"","type":"bytes32","internalType":"bytes32"}],"stateMutability":"view"},{"type":"function","name":"REVIEW_WINDOW","inputs":[],"outputs":[{"name":"","type":"uint256","internalType":"uint256"}],"stateMutability":"view"},{"type":"function","name":"createDispute","inputs":[{"name":"_contractor","type":"address","internalType":"address"},{"name":"_amount","type":"uint256","internalType":"uint256"}],"outputs":[],"stateMutability":"nonpayable"},{"type":"function","name":"disputes","inputs":[{"name":"","type":"uint256","internalType":"uint256"}],"outputs":[{"name":"id","type":"uint256","internalType":"uint256"},{"name":"client","type":"address","internalType":"address"},{"name":"contractor","type":"address","internalType":"address"},{"name":"totalAmount","type":"uint256","internalType":"uint256"},{"name":"evidenceIpfsHash","type":"string","internalType":"string"},{"name":"state","type":"uint8","internalType":"enum TFADispute.DisputeState"},{"name":"aiClientSplit","type":"uint256","internalType":"uint256"},{"name":"aiExplanationIpfs","type":"string","internalType":"string"},{"name":"aiVerdictTimestamp","type":"uint256","internalType":"uint256"}],"stateMutability":"view"},{"type":"function","name":"escrow","inputs":[],"outputs":[{"name":"","type":"address","internalType":"contract TFAEscrow"}],"stateMutability":"view"},{"type":"function","name":"finalizeAiVerdict","inputs":[{"name":"_disputeId","type":"uint256","internalType":"uint256"}],"outputs":[],"stateMutability":"nonpayable"},{"type":"function","name":"getRoleAdmin","inputs":[{"name":"role","type":"bytes32","internalType":"bytes32"}],"outputs":[{"name":"","type":"bytes32","internalType":"bytes32"}],"stateMutability":"view"},{"type":"function","name":"grantRole","inputs":[{"name":"role","type":"bytes32","internalType":"bytes32"},{"name":"account","type":"address","internalType":"address"}],"outputs":[],"stateMutability":"nonpayable"},{"type":"function","name":"hasRole","inputs":[{"name":"role","type":"bytes32","internalType":"bytes32"},{"name":"account","type":"address","internalType":"address"}],"outputs":[{"name":"","type":"bool","internalType":"bool"}],"stateMutability":"view"},{"type":"function","name":"nextDisputeId","inputs":[],"outputs":[{"name":"","type":"uint256","internalType":"uint256"}],"stateMutability":"view"},{"type":"function","name":"renounceRole","inputs":[{"name":"role","type":"bytes32","internalType":"bytes32"},{"name":"callerConfirmation","type":"address","internalType":"address"}],"outputs":[],"stateMutability":"nonpayable"},{"type":"function","name":"revokeRole","inputs":[{"name":"role","type":"bytes32","internalType":"bytes32"},{"name":"account","type":"address","internalType":"address"}],"outputs":[],"stateMutability":"nonpayable"},{"type":"function","name":"submitAiVerdict","inputs":[{"name":"_disputeId","type":"uint256","internalType":"uint256"},{"name":"_clientSplit","type":"uint256","internalType":"uint256"},{"name":"_explanation","type":"string","internalType":"string"}],"outputs":[],"stateMutability":"nonpayable"},{"type":"function","name":"submitEvidence","inputs":[{"name":"_disputeId","type":"uint256","internalType":"uint256"},{"name":"_ipfsHash","type":"string","internalType":"string"}],"outputs":[],"stateMutability":"nonpayable"},{"type":"function","name":"supportsInterface","inputs":[{"name":"interfaceId","type":"bytes4","internalType":"bytes4"}],"outputs":[{"name":"","type":"bool","internalType":"bool"}],"stateMutability":"view"},{"type":"event","name":"AiVerdictSubmitted","inputs":[{"name":"id","type":"uint256","indexed":true,"internalType":"uint256"},{"name":"clientSplit","type":"uint256","indexed":false,"internalType":"uint256"},{"name":"explanationHash","type":"string","indexed":false,"internalType":"string"}],"anonymous":false},{"type":"event","name":"DisputeCreated","inputs":[{"name":"id","type":"uint256","indexed":true,"internalType":"uint256"},{"name":"client","type":"address","indexed":false,"internalType":"address"},{"name":"contractor","type":"address","indexed":false,"internalType":"address"},{"name":"amount","type":"uint256","indexed":false,"internalType":"uint256"}],"anonymous":false},{"type":"event","name":"DisputeResolved","inputs":[{"name":"id","type":"uint256","indexed":true,"internalType":"uint256"},{"name":"finalClientSplit","type":"uint256","indexed":false,"internalType":"uint256"},{"name":"authority","type":"string","indexed":false,"internalType":"string"}],"anonymous":false},{"type":"event","name":"EvidenceSubmitted","inputs":[{"name":"id","type":"uint256","indexed":true,"internalType":"uint256"},{"name":"ipfsHash","type":"string","indexed":false,"internalType":"string"}],"anonymous":false},{"type":"event","name":"RoleAdminChanged","inputs":[{"name":"role","type":"bytes32","indexed":true,"internalType":"bytes32"},{"name":"previousAdminRole","type":"bytes32","indexed":true,"internalType":"bytes32"},{"name":"newAdminRole","type":"bytes32","indexed":true,"internalType":"bytes32"}],"anonymous":false},{"type":"event","name":"RoleGranted","inputs":[{"name":"role","type":"bytes32","indexed":true,"internalType":"bytes32"},{"name":"account","type":"address","indexed":true,"internalType":"address"},{"name":"sender","type":"address","indexed":true,"internalType":"address"}],"anonymous":false},{"type":"event","name":"RoleRevoked","inputs":[{"name":"role","type":"bytes32","indexed":true,"internalType":"bytes32"},{"name":"account","type":"address","indexed":true,"internalType":"address"},{"name":"sender","type":"address","indexed":true,"internalType":"address"}],"anonymous":false},{"type":"error","name":"AccessControlBadConfirmation","inputs":[]},{"type":"error","name":"AccessControlUnauthorizedAccount","inputs":[{"name":"account","type":"address","internalType":"address"},{"name":"neededRole","type":"bytes32","internalType":"bytes32"}]}],"bytecode":{"object":"0x608060405234801562000010575f80fd5b50604051620025593803806200255983398181016040528101906200003691906200025d565b6200004a5f801b826200009360201b60201c565b508160015f6101000a81548173ffffffffffffffffffffffffffffffffffffffff021916908373ffffffffffffffffffffffffffffffffffffffff1602179055505050620002a2565b5f620000a683836200018e60201b60201c565b620001845760015f808581526020019081526020015f205f015f8473ffffffffffffffffffffffffffffffffffffffff1673ffffffffffffffffffffffffffffffffffffffff1681526020019081526020015f205f6101000a81548160ff02191690831515021790555062000120620001f160201b60201c565b73ffffffffffffffffffffffffffffffffffffffff168273ffffffffffffffffffffffffffffffffffffffff16847f2f8788117e7eff1d82e926ec794901d17c78024a50270940304540a733656f0d60405160405180910390a46001905062000188565b5f90505b92915050565b5f805f8481526020019081526020015f205f015f8373ffffffffffffffffffffffffffffffffffffffff1673ffffffffffffffffffffffffffffffffffffffff1681526020019081526020015f205f9054906101000a900460ff16905092915050565b5f33905090565b5f80fd5b5f73ffffffffffffffffffffffffffffffffffffffff82169050919050565b5f6200022782620001fc565b9050919050565b62000239816200021b565b811462000244575f80fd5b50565b5f8151905062000257816200022e565b92915050565b5f8060408385031215620002765762000275620001f8565b5b5f620002858582860162000247565b9250506020620002988582860162000247565b9150509250929050565b6122a980620002b05f395ff3fe608060405234801561000f575f80fd5b50600436106100fe575f3560e01c806391d1485411610095578063e0e846fc11610064578063e0e846fc146102b2578063e2fdcc17146102ce578063eb183c6d146102ec578063fc87279e14610308576100fe565b806391d148541461022c578063a217fddf1461025c578063a6a7f0eb1461027a578063d547741f14610296576100fe565b80632f2ff15d116100d15780632f2ff15d1461019e57806336568abe146101ba5780634584712b146101d6578063564a565d146101f4576100fe565b806301ffc9a7146101025780630db3993414610132578063248a9ca31461015057806325b8e7eb14610180575b5f80fd5b61011c600480360381019061011791906113bf565b610324565b6040516101299190611404565b60405180910390f35b61013a61039d565b6040516101479190611435565b60405180910390f35b61016a60048036038101906101659190611481565b6103a3565b60405161017791906114bb565b60405180910390f35b6101886103bf565b60405161019591906114bb565b60405180910390f35b6101b860048036038101906101b3919061152e565b6103e3565b005b6101d460048036038101906101cf919061152e565b610405565b005b6101de610480565b6040516101eb9190611435565b60405180910390f35b61020e60048036038101906102099190611596565b610487565b604051610223999897969594939291906116cd565b60405180910390f35b6102466004803603810190610241919061152e565b610627565b6040516102539190611404565b60405180910390f35b61026461068a565b60405161027191906114bb565b60405180910390f35b610294600480360381019061028f91906117c7565b610690565b005b6102b060048036038101906102ab919061152e565b610884565b005b6102cc60048036038101906102c79190611824565b6108a6565b005b6102d6610b47565b6040516102e391906118bd565b60405180910390f35b610306600480360381019061030191906118d6565b610b6c565b005b610322600480360381019061031d9190611596565b610cfb565b005b5f7f7965db0b000000000000000000000000000000000000000000000000000000007bffffffffffffffffffffffffffffffffffffffffffffffffffffffff1916827bffffffffffffffffffffffffffffffffffffffffffffffffffffffff19161480610396575061039582610e23565b5b9050919050565b60025481565b5f805f8381526020019081526020015f20600101549050919050565b7ffaa623ff490ff9197b5ad863cd7f72b33e2e131994d09bd7260d7cd680faad7981565b6103ec826103a3565b6103f581610e8c565b6103ff8383610ea0565b50505050565b61040d610f89565b73ffffffffffffffffffffffffffffffffffffffff168173ffffffffffffffffffffffffffffffffffffffff1614610471576040517f6697b23200000000000000000000000000000000000000000000000000000000815260040160405180910390fd5b61047b8282610f90565b505050565b6203f48081565b6003602052805f5260405f205f91509050805f015490806001015f9054906101000a900473ffffffffffffffffffffffffffffffffffffffff1690806002015f9054906101000a900473ffffffffffffffffffffffffffffffffffffffff16908060030154908060040180546104fc90611974565b80601f016020809104026020016040519081016040528092919081815260200182805461052890611974565b80156105735780601f1061054a57610100808354040283529160200191610573565b820191905f5260205f20905b81548152906001019060200180831161055657829003601f168201915b505050505090806005015f9054906101000a900460ff16908060060154908060070180546105a090611974565b80601f01602080910402602001604051908101604052809291908181526020018280546105cc90611974565b80156106175780601f106105ee57610100808354040283529160200191610617565b820191905f5260205f20905b8154815290600101906020018083116105fa57829003601f168201915b5050505050908060080154905089565b5f805f8481526020019081526020015f205f015f8373ffffffffffffffffffffffffffffffffffffffff1673ffffffffffffffffffffffffffffffffffffffff1681526020019081526020015f205f9054906101000a900460ff16905092915050565b5f801b81565b5f60035f8581526020019081526020015f209050806001015f9054906101000a900473ffffffffffffffffffffffffffffffffffffffff1673ffffffffffffffffffffffffffffffffffffffff163373ffffffffffffffffffffffffffffffffffffffff16148061074f5750806002015f9054906101000a900473ffffffffffffffffffffffffffffffffffffffff1673ffffffffffffffffffffffffffffffffffffffff163373ffffffffffffffffffffffffffffffffffffffff16145b61078e576040517f08c379a0000000000000000000000000000000000000000000000000000000008152600401610785906119ee565b60405180910390fd5b5f60038111156107a1576107a061165a565b5b816005015f9054906101000a900460ff1660038111156107c4576107c361165a565b5b14610804576040517f08c379a00000000000000000000000000000000000000000000000000000000081526004016107fb90611a56565b60405180910390fd5b8282826004019182610817929190611c3f565b506001816005015f6101000a81548160ff0219169083600381111561083f5761083e61165a565b5b0217905550837f45896cea9c1984614dbdcc6649c7e939f7f33f9d34fcddfc253853cdd100f62f8484604051610876929190611d46565b60405180910390a250505050565b61088d826103a3565b61089681610e8c565b6108a08383610f90565b50505050565b5f60025f8154809291906108b990611d95565b9190505590506040518061012001604052808281526020013373ffffffffffffffffffffffffffffffffffffffff1681526020018473ffffffffffffffffffffffffffffffffffffffff16815260200183815260200160405180602001604052805f81525081526020015f60038111156109365761093561165a565b5b81526020015f815260200160405180602001604052805f81525081526020015f81525060035f8381526020019081526020015f205f820151815f01556020820151816001015f6101000a81548173ffffffffffffffffffffffffffffffffffffffff021916908373ffffffffffffffffffffffffffffffffffffffff1602179055506040820151816002015f6101000a81548173ffffffffffffffffffffffffffffffffffffffff021916908373ffffffffffffffffffffffffffffffffffffffff160217905550606082015181600301556080820151816004019081610a1d9190611ddc565b5060a0820151816005015f6101000a81548160ff02191690836003811115610a4857610a4761165a565b5b021790555060c0820151816006015560e0820151816007019081610a6c9190611ddc565b50610100820151816008015590505060015f9054906101000a900473ffffffffffffffffffffffffffffffffffffffff1673ffffffffffffffffffffffffffffffffffffffff1663bc157ac18233856040518463ffffffff1660e01b8152600401610ad993929190611eab565b5f604051808303815f87803b158015610af0575f80fd5b505af1158015610b02573d5f803e3d5ffd5b50505050807f3854fefc4ebe91a685ab0a9689bb3eda28d3cc5373aa8e87ee52f597bd1b9076338585604051610b3a93929190611ee0565b60405180910390a2505050565b60015f9054906101000a900473ffffffffffffffffffffffffffffffffffffffff1681565b7ffaa623ff490ff9197b5ad863cd7f72b33e2e131994d09bd7260d7cd680faad79610b9681610e8c565b5f60035f8781526020019081526020015f20905060016003811115610bbe57610bbd61165a565b5b816005015f9054906101000a900460ff166003811115610be157610be061165a565b5b14610c21576040517f08c379a0000000000000000000000000000000000000000000000000000000008152600401610c1890611f5f565b60405180910390fd5b6064851115610c65576040517f08c379a0000000000000000000000000000000000000000000000000000000008152600401610c5c90611fc7565b60405180910390fd5b8481600601819055508383826007019182610c81929190611c3f565b504281600801819055506002816005015f6101000a81548160ff02191690836003811115610cb257610cb161165a565b5b0217905550857f72c4a0874f89ad16fdd9df7077fa75febc85686014b5cc05875ed653d908bcbf868686604051610ceb93929190611fe5565b60405180910390a2505050505050565b5f60035f8381526020019081526020015f20905060026003811115610d2357610d2261165a565b5b816005015f9054906101000a900460ff166003811115610d4657610d4561165a565b5b14610d86576040517f08c379a0000000000000000000000000000000000000000000000000000000008152600401610d7d90611a56565b60405180910390fd5b6203f4808160080154610d999190612015565b421015610ddb576040517f08c379a0000000000000000000000000000000000000000000000000000000008152600401610dd290612092565b60405180910390fd5b610e1f8282600601546040518060400160405280600f81526020017f41495f46696e616c5f5374616765310000000000000000000000000000000000815250611079565b5050565b5f7f01ffc9a7000000000000000000000000000000000000000000000000000000007bffffffffffffffffffffffffffffffffffffffffffffffffffffffff1916827bffffffffffffffffffffffffffffffffffffffffffffffffffffffff1916149050919050565b610e9d81610e98610f89565b611311565b50565b5f610eab8383610627565b610f7f5760015f808581526020019081526020015f205f015f8473ffffffffffffffffffffffffffffffffffffffff1673ffffffffffffffffffffffffffffffffffffffff1681526020019081526020015f205f6101000a81548160ff021916908315150217905550610f1c610f89565b73ffffffffffffffffffffffffffffffffffffffff168273ffffffffffffffffffffffffffffffffffffffff16847f2f8788117e7eff1d82e926ec794901d17c78024a50270940304540a733656f0d60405160405180910390a460019050610f83565b5f90505b92915050565b5f33905090565b5f610f9b8383610627565b1561106f575f805f8581526020019081526020015f205f015f8473ffffffffffffffffffffffffffffffffffffffff1673ffffffffffffffffffffffffffffffffffffffff1681526020019081526020015f205f6101000a81548160ff02191690831515021790555061100c610f89565b73ffffffffffffffffffffffffffffffffffffffff168273ffffffffffffffffffffffffffffffffffffffff16847ff6391f5c32d9c69d2a47ea670b442974b53935d1edc7fd64eb21e047a839171b60405160405180910390a460019050611073565b5f90505b92915050565b5f60035f8581526020019081526020015f2090506003808111156110a05761109f61165a565b5b816005015f9054906101000a900460ff1660038111156110c3576110c261165a565b5b03611103576040517f08c379a00000000000000000000000000000000000000000000000000000000081526004016110fa906120fa565b60405180910390fd5b5f60648483600301546111169190612118565b6111209190612186565b90505f81836003015461113391906121b6565b90505f8211156111ec5760015f9054906101000a900473ffffffffffffffffffffffffffffffffffffffff1673ffffffffffffffffffffffffffffffffffffffff1663ce687812846001015f9054906101000a900473ffffffffffffffffffffffffffffffffffffffff1684896040518463ffffffff1660e01b81526004016111be939291906121e9565b5f604051808303815f87803b1580156111d5575f80fd5b505af11580156111e7573d5f803e3d5ffd5b505050505b5f8111156112a35760015f9054906101000a900473ffffffffffffffffffffffffffffffffffffffff1673ffffffffffffffffffffffffffffffffffffffff1663ce687812846002015f9054906101000a900473ffffffffffffffffffffffffffffffffffffffff1683896040518463ffffffff1660e01b8152600401611275939291906121e9565b5f604051808303815f87803b15801561128c575f80fd5b505af115801561129e573d5f803e3d5ffd5b505050505b6003836005015f6101000a81548160ff021916908360038111156112ca576112c961165a565b5b0217905550857f0158a5ff2f2de21ab82093e428cbf301ebe93c8ef24504790b8681715b9058a8868660405161130192919061221e565b60405180910390a2505050505050565b61131b8282610627565b61135e5780826040517fe2517d3f00000000000000000000000000000000000000000000000000000000815260040161135592919061224c565b60405180910390fd5b5050565b5f80fd5b5f80fd5b5f7fffffffff0000000000000000000000000000000000000000000000000000000082169050919050565b61139e8161136a565b81146113a8575f80fd5b50565b5f813590506113b981611395565b92915050565b5f602082840312156113d4576113d3611362565b5b5f6113e1848285016113ab565b91505092915050565b5f8115159050919050565b6113fe816113ea565b82525050565b5f6020820190506114175f8301846113f5565b92915050565b5f819050919050565b61142f8161141d565b82525050565b5f6020820190506114485f830184611426565b92915050565b5f819050919050565b6114608161144e565b811461146a575f80fd5b50565b5f8135905061147b81611457565b92915050565b5f6020828403121561149657611495611362565b5b5f6114a38482850161146d565b91505092915050565b6114b58161144e565b82525050565b5f6020820190506114ce5f8301846114ac565b92915050565b5f73ffffffffffffffffffffffffffffffffffffffff82169050919050565b5f6114fd826114d4565b9050919050565b61150d816114f3565b8114611517575f80fd5b50565b5f8135905061152881611504565b92915050565b5f806040838503121561154457611543611362565b5b5f6115518582860161146d565b92505060206115628582860161151a565b9150509250929050565b6115758161141d565b811461157f575f80fd5b50565b5f813590506115908161156c565b92915050565b5f602082840312156115ab576115aa611362565b5b5f6115b884828501611582565b91505092915050565b6115ca816114f3565b82525050565b5f81519050919050565b5f82825260208201905092915050565b5f5b838110156116075780820151818401526020810190506115ec565b5f8484015250505050565b5f601f19601f8301169050919050565b5f61162c826115d0565b61163681856115da565b93506116468185602086016115ea565b61164f81611612565b840191505092915050565b7f4e487b71000000000000000000000000000000000000000000000000000000005f52602160045260245ffd5b600481106116985761169761165a565b5b50565b5f8190506116a882611687565b919050565b5f6116b78261169b565b9050919050565b6116c7816116ad565b82525050565b5f610120820190506116e15f83018c611426565b6116ee602083018b6115c1565b6116fb604083018a6115c1565b6117086060830189611426565b818103608083015261171a8188611622565b905061172960a08301876116be565b61173660c0830186611426565b81810360e08301526117488185611622565b9050611758610100830184611426565b9a9950505050505050505050565b5f80fd5b5f80fd5b5f80fd5b5f8083601f84011261178757611786611766565b5b8235905067ffffffffffffffff8111156117a4576117a361176a565b5b6020830191508360018202830111156117c0576117bf61176e565b5b9250929050565b5f805f604084860312156117de576117dd611362565b5b5f6117eb86828701611582565b935050602084013567ffffffffffffffff81111561180c5761180b611366565b5b61181886828701611772565b92509250509250925092565b5f806040838503121561183a57611839611362565b5b5f6118478582860161151a565b925050602061185885828601611582565b9150509250929050565b5f819050919050565b5f61188561188061187b846114d4565b611862565b6114d4565b9050919050565b5f6118968261186b565b9050919050565b5f6118a78261188c565b9050919050565b6118b78161189d565b82525050565b5f6020820190506118d05f8301846118ae565b92915050565b5f805f80606085870312156118ee576118ed611362565b5b5f6118fb87828801611582565b945050602061190c87828801611582565b935050604085013567ffffffffffffffff81111561192d5761192c611366565b5b61193987828801611772565b925092505092959194509250565b7f4e487b71000000000000000000000000000000000000000000000000000000005f52602260045260245ffd5b5f600282049050600182168061198b57607f821691505b60208210810361199e5761199d611947565b5b50919050565b7f4e6f74206120706172747920746f2064697370757465000000000000000000005f82015250565b5f6119d86016836115da565b91506119e3826119a4565b602082019050919050565b5f6020820190508181035f830152611a05816119cc565b9050919050565b7f496e76616c6964207374617465000000000000000000000000000000000000005f82015250565b5f611a40600d836115da565b9150611a4b82611a0c565b602082019050919050565b5f6020820190508181035f830152611a6d81611a34565b9050919050565b5f82905092915050565b7f4e487b71000000000000000000000000000000000000000000000000000000005f52604160045260245ffd5b5f819050815f5260205f209050919050565b5f6020601f8301049050919050565b5f82821b905092915050565b5f60088302611b077fffffffffffffffffffffffffffffffffffffffffffffffffffffffffffffffff82611acc565b611b118683611acc565b95508019841693508086168417925050509392505050565b5f611b43611b3e611b398461141d565b611862565b61141d565b9050919050565b5f819050919050565b611b5c83611b29565b611b70611b6882611b4a565b848454611ad8565b825550505050565b5f90565b611b84611b78565b611b8f818484611b53565b505050565b5b81811015611bb257611ba75f82611b7c565b600181019050611b95565b5050565b601f821115611bf757611bc881611aab565b611bd184611abd565b81016020851015611be0578190505b611bf4611bec85611abd565b830182611b94565b50505b505050565b5f82821c905092915050565b5f611c175f1984600802611bfc565b1980831691505092915050565b5f611c2f8383611c08565b9150826002028217905092915050565b611c498383611a74565b67ffffffffffffffff811115611c6257611c61611a7e565b5b611c6c8254611974565b611c77828285611bb6565b5f601f831160018114611ca4575f8415611c92578287013590505b611c9c8582611c24565b865550611d03565b601f198416611cb286611aab565b5f5b82811015611cd957848901358255600182019150602085019450602081019050611cb4565b86831015611cf65784890135611cf2601f891682611c08565b8355505b6001600288020188555050505b50505050505050565b828183375f83830152505050565b5f611d2583856115da565b9350611d32838584611d0c565b611d3b83611612565b840190509392505050565b5f6020820190508181035f830152611d5f818486611d1a565b90509392505050565b7f4e487b71000000000000000000000000000000000000000000000000000000005f52601160045260245ffd5b5f611d9f8261141d565b91507fffffffffffffffffffffffffffffffffffffffffffffffffffffffffffffffff8203611dd157611dd0611d68565b5b600182019050919050565b611de5826115d0565b67ffffffffffffffff811115611dfe57611dfd611a7e565b5b611e088254611974565b611e13828285611bb6565b5f60209050601f831160018114611e44575f8415611e32578287015190505b611e3c8582611c24565b865550611ea3565b601f198416611e5286611aab565b5f5b82811015611e7957848901518255600182019150602085019450602081019050611e54565b86831015611e965784890151611e92601f891682611c08565b8355505b6001600288020188555050505b505050505050565b5f606082019050611ebe5f830186611426565b611ecb60208301856115c1565b611ed86040830184611426565b949350505050565b5f606082019050611ef35f8301866115c1565b611f0060208301856115c1565b611f0d6040830184611426565b949350505050565b7f4149206e6f742072657175697265642063757272656e746c79000000000000005f82015250565b5f611f496019836115da565b9150611f5482611f15565b602082019050919050565b5f6020820190508181035f830152611f7681611f3d565b9050919050565b7f53706c6974206d75737420626520302d313030000000000000000000000000005f82015250565b5f611fb16013836115da565b9150611fbc82611f7d565b602082019050919050565b5f6020820190508181035f830152611fde81611fa5565b9050919050565b5f604082019050611ff85f830186611426565b818103602083015261200b818486611d1a565b9050949350505050565b5f61201f8261141d565b915061202a8361141d565b925082820190508082111561204257612041611d68565b5b92915050565b7f5265766965772077696e646f77207374696c6c206f70656e00000000000000005f82015250565b5f61207c6018836115da565b915061208782612048565b602082019050919050565b5f6020820190508181035f8301526120a981612070565b9050919050565b7f416c7265616479207265736f6c766564000000000000000000000000000000005f82015250565b5f6120e46010836115da565b91506120ef826120b0565b602082019050919050565b5f6020820190508181035f830152612111816120d8565b9050919050565b5f6121228261141d565b915061212d8361141d565b925082820261213b8161141d565b9150828204841483151761215257612151611d68565b5b5092915050565b7f4e487b71000000000000000000000000000000000000000000000000000000005f52601260045260245ffd5b5f6121908261141d565b915061219b8361141d565b9250826121ab576121aa612159565b5b828204905092915050565b5f6121c08261141d565b91506121cb8361141d565b92508282039050818111156121e3576121e2611d68565b5b92915050565b5f6060820190506121fc5f8301866115c1565b6122096020830185611426565b6122166040830184611426565b949350505050565b5f6040820190506122315f830185611426565b81810360208301526122438184611622565b90509392505050565b5f60408201905061225f5f8301856115c1565b61226c60208301846114ac565b939250505056fea2646970667358221220a0651f16d1b6aa903d4ab84a178fe8b8a18742dd22af03ad2c040bab2795a26a64736f6c63430008140033","linkReferences":{}},"methodIdentifiers":{"AI_AGENT_ROLE()":"25b8e7eb","DEFAULT_ADMIN_ROLE()":"a217fddf","REVIEW_WINDOW()":"4584712b","createDispute(address,uint256)":"e0e846fc","disputes(uint256)":"564a565d","escrow()":"e2fdcc17","finalizeAiVerdict(uint256)":"fc87279e","getRoleAdmin(bytes32)":"248a9ca3","grantRole(bytes32,address)":"2f2ff15d","hasRole(bytes32,address)":"91d14854","nextDisputeId()":"0db39934","renounceRole(bytes32,address)":"36568abe","revokeRole(bytes32,address)":"d547741f","submitAiVerdict(uint256,uint256,string)":"eb183c6d","submitEvidence(uint256,string)":"a6a7f0eb","supportsInterface(bytes4)":"01ffc9a7"},"id":29}