{"abi":[{"type":"constructor","inputs":[{"name":"_escrowAddress","type":"address","internalType":"address"},{"name":"_admin","type":"address","internalType":"address"}],"stateMutability":"nonpayable"},{"type":"function","name":"AI_AGENT_ROLE","inputs":[],"outputs":[{"name":"","type":"bytes32","internalType":"bytes32"}],"stateMutability":"view"},{"type":"function","name":"DEFAULT_ADMIN_ROLE","inputs":[],"outputs":[{"name":"","type":"bytes32","internalType":"bytes32"}],"stateMutability":"view"},{"type":"function","name":"createJob","inputs":[{"name":"_contractor","type":"address","internalType":"address"},{"name":"_amount","type":"uint256","internalType":"uint256"}],"outputs":[],"stateMutability":"nonpayable"},{"type":"function","name":"escrow","inputs":[],"outputs":[{"name":"","type":"address","internalType":"contract TFAEscrow"}],"stateMutability":"view"},{"type":"function","name":"getRoleAdmin","inputs":[{"name":"role","type":"bytes32","internalType":"bytes32"}],"outputs":[{"name":"","type":"bytes32","internalType":"bytes32"}],"stateMutability":"view"},{"type":"function","name":"grantRole","inputs":[{"name":"role","type":"bytes32","internalType":"bytes32"},{"name":"account","type":"address","internalType":"address"}],"outputs":[],"stateMutability":"nonpayable"},{"type":"function","name":"hasRole","inputs":[{"name":"role","type":"bytes32","internalType":"bytes32"},{"name":"account","type":"address","internalType":"address"}],"outputs":[{"name":"","type":"bool","internalType":"bool"}],"stateMutability":"view"},{"type":"function","name":"jobs","inputs":[{"name":"","type":"uint256","internalType":"uint256"}],"outputs":[{"name":"id","type":"uint256","internalType":"uint256"},{"name":"client","type":"address","internalType":"address"},{"name":"contractor","type":"address","internalType":"address"},{"name":"totalAmount","type":"uint256","internalType":"uint256"},{"name":"state","type":"uint8","internalType":"enum TFADispute.JobState"},{"name":"aiClientSplit","type":"uint256","internalType":"uint256"},{"name":"aiExplanation","type":"string","internalType":"string"},{"name":"aiVerdictTimestamp","type":"uint256","internalType":"uint256"}],"stateMutability":"view"},{"type":"function","name":"nextJobId","inputs":[],"outputs":[{"name":"","type":"uint256","internalType":"uint256"}],"stateMutability":"view"},{"type":"function","name":"raiseDispute","inputs":[{"name":"_jobId","type":"uint256","internalType":"uint256"}],"outputs":[],"stateMutability":"nonpayable"},{"type":"function","name":"releaseToContractor","inputs":[{"name":"_jobId","type":"uint256","internalType":"uint256"}],"outputs":[],"stateMutability":"nonpayable"},{"type":"function","name":"renounceRole","inputs":[{"name":"role","type":"bytes32","internalType":"bytes32"},{"name":"callerConfirmation","type":"address","internalType":"address"}],"outputs":[],"stateMutability":"nonpayable"},{"type":"function","name":"resolveDispute","inputs":[{"name":"_jobId","type":"uint256","internalType":"uint256"},{"name":"_clientSplit","type":"uint256","internalType":"uint256"},{"name":"_explanation","type":"string","internalType":"string"}],"outputs":[],"stateMutability":"nonpayable"},{"type":"function","name":"revokeRole","inputs":[{"name":"role","type":"bytes32","internalType":"bytes32"},{"name":"account","type":"address","internalType":"address"}],"outputs":[],"stateMutability":"nonpayable"},{"type":"function","name":"supportsInterface","inputs":[{"name":"interfaceId","type":"bytes4","internalType":"bytes4"}],"outputs":[{"name":"","type":"bool","internalType":"bool"}],"stateMutability":"view"},{"type":"event","name":"DisputeRaised","inputs":[{"name":"id","type":"uint256","indexed":true,"internalType":"uint256"},{"name":"raisedBy","type":"address","indexed":false,"internalType":"address"}],"anonymous":false},{"type":"event","name":"DisputeResolved","inputs":[{"name":"id","type":"uint256","indexed":true,"internalType":"uint256"},{"name":"finalClientSplit","type":"uint256","indexed":false,"internalType":"uint256"}],"anonymous":false},{"type":"event","name":"FundsReleased","inputs":[{"name":"id","type":"uint256","indexed":true,"internalType":"uint256"},{"name":"to","type":"address","indexed":false,"internalType":"address"},{"name":"amount","type":"uint256","indexed":false,"internalType":"uint256"}],"anonymous":false},{"type":"event","name":"JobCreated","inputs":[{"name":"id","type":"uint256","indexed":true,"internalType":"uint256"},{"name":"client","type":"address","indexed":false,"internalType":"address"},{"name":"contractor","type":"address","indexed":false,"internalType":"address"},{"name":"amount","type":"uint256","indexed":false,"internalType":"uint256"}],"anonymous":false},{"type":"event","name":"RoleAdminChanged","inputs":[{"name":"role","type":"bytes32","indexed":true,"internalType":"bytes32"},{"name":"previousAdminRole","type":"bytes32","indexed":true,"internalType":"bytes32"},{"name":"newAdminRole","type":"bytes32","indexed":true,"internalType":"bytes32"}],"anonymous":false},{"type":"event","name":"RoleGranted","inputs":[{"name":"role","type":"bytes32","indexed":true,"internalType":"bytes32"},{"name":"account","type":"address","indexed":true,"internalType":"address"},{"name":"sender","type":"address","indexed":true,"internalType":"address"}],"anonymous":false},{"type":"event","name":"RoleRevoked","inputs":[{"name":"role","type":"bytes32","indexed":true,"internalType":"bytes32"},{"name":"account","type":"address","indexed":true,"internalType":"address"},{"name":"sender","type":"address","indexed":true,"internalType":"address"}],"anonymous":false},{"type":"error","name":"AccessControlBadConfirmation","inputs":[]},{"type":"error","name":"AccessControlUnauthorizedAccount","inputs":[{"name":"account","type":"address","internalType":"address"},{"name":"neededRole","type":"bytes32","internalType":"bytes32"}]}],"bytecode":{"object":"0x608060405234801562000010575f80fd5b506040516200139e3803806200139e8339810160408190526200003391620001e3565b6001600160a01b0382166200008f5760405162461bcd60e51b815260206004820152601660248201527f496e76616c696420457363726f7720416464726573730000000000000000000060448201526064015b60405180910390fd5b6001600160a01b038116620000e75760405162461bcd60e51b815260206004820152601560248201527f496e76616c69642041646d696e20416464726573730000000000000000000000604482015260640162000086565b620000f35f826200011b565b5050600180546001600160a01b0319166001600160a01b039290921691909117905562000219565b5f828152602081815260408083206001600160a01b038516845290915281205460ff16620001be575f838152602081815260408083206001600160a01b03861684529091529020805460ff19166001179055620001753390565b6001600160a01b0316826001600160a01b0316847f2f8788117e7eff1d82e926ec794901d17c78024a50270940304540a733656f0d60405160405180910390a4506001620001c1565b505f5b92915050565b80516001600160a01b0381168114620001de575f80fd5b919050565b5f8060408385031215620001f5575f80fd5b6200020083620001c7565b91506200021060208401620001c7565b90509250929050565b61117780620002275f395ff3fe608060405234801561000f575f80fd5b50600436106100f0575f3560e01c806391d1485411610093578063b92dfe5c11610063578063b92dfe5c1461020b578063c49cd1891461021e578063d547741f14610231578063e2fdcc1714610244575f80fd5b806391d14854146101d5578063a217fddf146101e8578063a5c1674e146101ef578063b0c2aa5e14610202575f80fd5b806325b8e7eb116100ce57806325b8e7eb146101735780632f2ff15d1461019a57806336568abe146101af5780633f2a66f8146101c2575f80fd5b806301ffc9a7146100f4578063180aedf31461011c578063248a9ca314610143575b5f80fd5b610107610102366004610cd6565b61026f565b60405190151581526020015b60405180910390f35b61012f61012a366004610d04565b6102a5565b604051610113989796959493929190610d2f565b610165610151366004610d04565b5f9081526020819052604090206001015490565b604051908152602001610113565b6101657ffaa623ff490ff9197b5ad863cd7f72b33e2e131994d09bd7260d7cd680faad7981565b6101ad6101a8366004610df8565b610381565b005b6101ad6101bd366004610df8565b6103ab565b6101ad6101d0366004610e22565b6103e3565b6101076101e3366004610df8565b61065d565b6101655f81565b6101ad6101fd366004610d04565b610685565b61016560025481565b6101ad610219366004610d04565b61078d565b6101ad61022c366004610e4a565b61090e565b6101ad61023f366004610df8565b610b70565b600154610257906001600160a01b031681565b6040516001600160a01b039091168152602001610113565b5f6001600160e01b03198216637965db0b60e01b148061029f57506301ffc9a760e01b6001600160e01b03198316145b92915050565b600360208190525f9182526040909120805460018201546002830154938301546004840154600585015460068601805495976001600160a01b0395861697951695939460ff909316939192916102fa90610ec3565b80601f016020809104026020016040519081016040528092919081815260200182805461032690610ec3565b80156103715780601f1061034857610100808354040283529160200191610371565b820191905f5260205f20905b81548152906001019060200180831161035457829003601f168201915b5050505050908060070154905088565b5f8281526020819052604090206001015461039b81610b94565b6103a58383610ba1565b50505050565b6001600160a01b03811633146103d45760405163334bd91960e11b815260040160405180910390fd5b6103de8282610c30565b505050565b6001600160a01b0382166104335760405162461bcd60e51b815260206004820152601260248201527124b73b30b634b21021b7b73a3930b1ba37b960711b60448201526064015b60405180910390fd5b5f81116104775760405162461bcd60e51b81526020600482015260126024820152710416d6f756e74206d757374206265203e20360741b604482015260640161042a565b600280545f918261048783610f0f565b919050559050604051806101000160405280828152602001336001600160a01b03168152602001846001600160a01b031681526020018381526020015f60028111156104d5576104d5610d1b565b81525f60208083018290526040805180830182528381528185015260609384018390528583526003808352928190208551815591850151600180840180546001600160a01b03199081166001600160a01b0394851617909155928701516002808601805490951691909316179092559385015192820192909255608084015160048201805492949193909260ff191691849081111561057657610576610d1b565b021790555060a0820151600582015560c082015160068201906105999082610f80565b5060e09190910151600790910155604080513381526001600160a01b038516602082015290810183905281907f8f4ee83cefe0dfb2f73fe6057bfa5b233fc43358bbb5f5606f444cbd4c5c4f8c9060600160405180910390a260015460405163bc157ac160e01b815260048101839052336024820152604481018490526001600160a01b039091169063bc157ac1906064015f604051808303815f87803b158015610642575f80fd5b505af1158015610654573d5f803e3d5ffd5b50505050505050565b5f918252602082815260408084206001600160a01b0393909316845291905290205460ff1690565b5f81815260036020526040902060018101546001600160a01b03163314806106b9575060028101546001600160a01b031633145b6106f15760405162461bcd60e51b81526020600482015260096024820152684e6f7420706172747960b81b604482015260640161042a565b5f600482015460ff16600281111561070b5761070b610d1b565b146107455760405162461bcd60e51b815260206004820152600a6024820152694e6f742061637469766560b01b604482015260640161042a565b60048101805460ff1916600117905560405133815282907f84a477df8a28a4276ca6dee4458a06c3015f30c477d9c949ede4e13ff8a552b49060200160405180910390a25050565b5f81815260036020526040902060018101546001600160a01b031633146107e45760405162461bcd60e51b815260206004820152600b60248201526a13db9b1e4818db1a595b9d60aa1b604482015260640161042a565b5f600482015460ff1660028111156107fe576107fe610d1b565b146108385760405162461bcd60e51b815260206004820152600a6024820152694e6f742061637469766560b01b604482015260640161042a565b60048101805460ff191660029081179091558101546003820154604080516001600160a01b039093168352602083019190915283917f6e3c6096795c8298a218b2cfb8bde42726ff7c9a3d27b4d3ba41ab7f74feb5fb910160405180910390a2600154600282015460038301546040516367343c0960e11b81526001600160a01b03928316600482015260248101919091526044810185905291169063ce687812906064015f604051808303815f87803b1580156108f4575f80fd5b505af1158015610906573d5f803e3d5ffd5b505050505050565b7ffaa623ff490ff9197b5ad863cd7f72b33e2e131994d09bd7260d7cd680faad7961093881610b94565b5f8581526003602052604090206001600482015460ff16600281111561096057610960610d1b565b1461099c5760405162461bcd60e51b815260206004820152600c60248201526b139bdd08191a5cdc1d5d195960a21b604482015260640161042a565b60648511156109ed5760405162461bcd60e51b815260206004820152601860248201527f53706c69742063616e6e6f742065786365656420313030250000000000000000604482015260640161042a565b600681016109fc84868361103c565b506005810185905542600782015560048101805460ff1916600217905560405185815286907fb4121f1f91a696a3fc75f6d151f3c9865abffa0738bda595e71c381c02af2faa9060200160405180910390a25f6064868360030154610a6191906110f8565b610a6b919061110f565b90505f818360030154610a7e919061112e565b90508115610af35760018054908401546040516367343c0960e11b81526001600160a01b03918216600482015260248101859052604481018b905291169063ce687812906064015f604051808303815f87803b158015610adc575f80fd5b505af1158015610aee573d5f803e3d5ffd5b505050505b8015610b665760015460028401546040516367343c0960e11b81526001600160a01b03918216600482015260248101849052604481018b905291169063ce687812906064015f604051808303815f87803b158015610b4f575f80fd5b505af1158015610b61573d5f803e3d5ffd5b505050505b5050505050505050565b5f82815260208190526040902060010154610b8a81610b94565b6103a58383610c30565b610b9e8133610c99565b50565b5f610bac838361065d565b610c29575f838152602081815260408083206001600160a01b03861684529091529020805460ff19166001179055610be13390565b6001600160a01b0316826001600160a01b0316847f2f8788117e7eff1d82e926ec794901d17c78024a50270940304540a733656f0d60405160405180910390a450600161029f565b505f61029f565b5f610c3b838361065d565b15610c29575f838152602081815260408083206001600160a01b0386168085529252808320805460ff1916905551339286917ff6391f5c32d9c69d2a47ea670b442974b53935d1edc7fd64eb21e047a839171b9190a450600161029f565b610ca3828261065d565b610cd25760405163e2517d3f60e01b81526001600160a01b03821660048201526024810183905260440161042a565b5050565b5f60208284031215610ce6575f80fd5b81356001600160e01b031981168114610cfd575f80fd5b9392505050565b5f60208284031215610d14575f80fd5b5035919050565b634e487b7160e01b5f52602160045260245ffd5b5f6101008a8352602060018060a01b03808c1682860152808b1660408601525088606085015260038810610d7157634e487b7160e01b5f52602160045260245ffd5b8760808501528660a08501528160c0850152855180838601525f92505b80831015610dad57868301820151858401610120015291810191610d8e565b61012092505f83828701015282601f19601f83011686010193505050508260e08301529998505050505050505050565b80356001600160a01b0381168114610df3575f80fd5b919050565b5f8060408385031215610e09575f80fd5b82359150610e1960208401610ddd565b90509250929050565b5f8060408385031215610e33575f80fd5b610e3c83610ddd565b946020939093013593505050565b5f805f8060608587031215610e5d575f80fd5b8435935060208501359250604085013567ffffffffffffffff80821115610e82575f80fd5b818701915087601f830112610e95575f80fd5b813581811115610ea3575f80fd5b886020828501011115610eb4575f80fd5b95989497505060200194505050565b600181811c90821680610ed757607f821691505b602082108103610ef557634e487b7160e01b5f52602260045260245ffd5b50919050565b634e487b7160e01b5f52601160045260245ffd5b5f60018201610f2057610f20610efb565b5060010190565b634e487b7160e01b5f52604160045260245ffd5b601f8211156103de575f81815260208120601f850160051c81016020861015610f615750805b601f850160051c820191505b8181101561090657828155600101610f6d565b815167ffffffffffffffff811115610f9a57610f9a610f27565b610fae81610fa88454610ec3565b84610f3b565b602080601f831160018114610fe1575f8415610fca5750858301515b5f19600386901b1c1916600185901b178555610906565b5f85815260208120601f198616915b8281101561100f57888601518255948401946001909101908401610ff0565b508582101561102c57878501515f19600388901b60f8161c191681555b5050505050600190811b01905550565b67ffffffffffffffff83111561105457611054610f27565b611068836110628354610ec3565b83610f3b565b5f601f841160018114611099575f85156110825750838201355b5f19600387901b1c1916600186901b1783556110f1565b5f83815260209020601f19861690835b828110156110c957868501358255602094850194600190920191016110a9565b50868210156110e5575f1960f88860031b161c19848701351681555b505060018560011b0183555b5050505050565b808202811582820484141761029f5761029f610efb565b5f8261112957634e487b7160e01b5f52601260045260245ffd5b500490565b8181038181111561029f5761029f610efb56fea2646970667358221220924df753b0a1520d5efc62bcebdf3c7cf016594457a3467a402a9107172e3bee64736f6c63430008140033","linkReferences":{}},"methodIdentifiers":{"AI_AGENT_ROLE()":"25b8e7eb","DEFAULT_ADMIN_ROLE()":"a217fddf","createJob(address,uint256)":"3f2a66f8","escrow()":"e2fdcc17","getRoleAdmin(bytes32)":"248a9ca3","grantRole(bytes32,address)":"2f2ff15d","hasRole(bytes32,address)":"91d14854","jobs(uint256)":"180aedf3","nextJobId()":"b0c2aa5e","raiseDispute(uint256)":"a5c1674e","releaseToContractor(uint256)":"b92dfe5c","renounceRole(bytes32,address)":"36568abe","resolveDispute(uint256,uint256,string)":"c49cd189","revokeRole(bytes32,address)":"d547741f","supportsInterface(bytes4)":"01ffc9a7"},"id":29}