{"abi":[{"type":"constructor","inputs":[{"name":"_escrowAddress","type":"address","internalType":"address"},{"name":"_admin","type":"address","internalType":"address"}],"stateMutability":"nonpayable"},{"type":"function","name":"AI_AGENT_ROLE","inputs":[],"outputs":[{"name":"","type":"bytes32","internalType":"bytes32"}],"stateMutability":"view"},{"type":"function","name":"DEFAULT_ADMIN_ROLE","inputs":[],"outputs":[{"name":"","type":"bytes32","internalType":"bytes32"}],"stateMutability":"view"},{"type":"function","name":"createJob","inputs":[{"name":"_contractor","type":"address","internalType":"address"},{"name":"_amount","type":"uint256","internalType":"uint256"}],"outputs":[],"stateMutability":"nonpayable"},{"type":"function","name":"escrow","inputs":[],"outputs":[{"name":"","type":"address","internalType":"contract TFAEscrow"}],"stateMutability":"view"},{"type":"function","name":"getRoleAdmin","inputs":[{"name":"role","type":"bytes32","internalType":"bytes32"}],"outputs":[{"name":"","type":"bytes32","internalType":"bytes32"}],"stateMutability":"view"},{"type":"function","name":"grantRole","inputs":[{"name":"role","type":"bytes32","internalType":"bytes32"},{"name":"account","type":"address","internalType":"address"}],"outputs":[],"stateMutability":"nonpayable"},{"type":"function","name":"hasRole","inputs":[{"name":"role","type":"bytes32","internalType":"bytes32"},{"name":"account","type":"address","internalType":"address"}],"outputs":[{"name":"","type":"bool","internalType":"bool"}],"stateMutability":"view"},{"type":"function","name":"jobs","inputs":[{"name":"","type":"uint256","internalType":"uint256"}],"outputs":[{"name":"id","type":"uint256","internalType":"uint256"},{"name":"client","type":"address","internalType":"address"},{"name":"contractor","type":"address","internalType":"address"},{"name":"totalAmount","type":"uint256","internalType":"uint256"},{"name":"state","type":"uint8","internalType":"enum TFADispute.JobState"},{"name":"aiClientSplit","type":"uint256","internalType":"uint256"},{"name":"aiExplanation","type":"string","internalType":"string"},{"name":"aiVerdictTimestamp","type":"uint256","internalType":"uint256"}],"stateMutability":"view"},{"type":"function","name":"nextJobId","inputs":[],"outputs":[{"name":"","type":"uint256","internalType":"uint256"}],"stateMutability":"view"},{"type":"function","name":"raiseDispute","inputs":[{"name":"_jobId","type":"uint256","internalType":"uint256"}],"outputs":[],"stateMutability":"nonpayable"},{"type":"function","name":"releaseToContractor","inputs":[{"name":"_jobId","type":"uint256","internalType":"uint256"}],"outputs":[],"stateMutability":"nonpayable"},{"type":"function","name":"renounceRole","inputs":[{"name":"role","type":"bytes32","internalType":"bytes32"},{"name":"callerConfirmation","type":"address","internalType":"address"}],"outputs":[],"stateMutability":"nonpayable"},{"type":"function","name":"resolveDispute","inputs":[{"name":"_jobId","type":"uint256","internalType":"uint256"},{"name":"_clientSplit","type":"uint256","internalType":"uint256"},{"name":"_explanation","type":"string","internalType":"string"}],"outputs":[],"stateMutability":"nonpayable"},{"type":"function","name":"revokeRole","inputs":[{"name":"role","type":"bytes32","internalType":"bytes32"},{"name":"account","type":"address","internalType":"address"}],"outputs":[],"stateMutability":"nonpayable"},{"type":"function","name":"supportsInterface","inputs":[{"name":"interfaceId","type":"bytes4","internalType":"bytes4"}],"outputs":[{"name":"","type":"bool","internalType":"bool"}],"stateMutability":"view"},{"type":"event","name":"DisputeRaised","inputs":[{"name":"id","type":"uint256","indexed":true,"internalType":"uint256"},{"name":"raisedBy","type":"address","indexed":false,"internalType":"address"}],"anonymous":false},{"type":"event","name":"DisputeResolved","inputs":[{"name":"id","type":"uint256","indexed":true,"internalType":"uint256"},{"name":"finalClientSplit","type":"uint256","indexed":false,"internalType":"uint256"}],"anonymous":false},{"type":"event","name":"FundsReleased","inputs":[{"name":"id","type":"uint256","indexed":true,"internalType":"uint256"},{"name":"to","type":"address","indexed":false,"internalType":"address"},{"name":"amount","type":"uint256","indexed":false,"internalType":"uint256"}],"anonymous":false},{"type":"event","name":"JobCreated","inputs":[{"name":"id","type":"uint256","indexed":true,"internalType":"uint256"},{"name":"client","type":"address","indexed":false,"internalType":"address"},{"name":"contractor","type":"address","indexed":false,"internalType":"address"},{"name":"amount","type":"uint256","indexed":false,"internalType":"uint256"}],"anonymous":false},{"type":"event","name":"RoleAdminChanged","inputs":[{"name":"role","type":"bytes32","indexed":true,"internalType":"bytes32"},{"name":"previousAdminRole","type":"bytes32","indexed":true,"internalType":"bytes32"},{"name":"newAdminRole","type":"bytes32","indexed":true,"internalType":"bytes32"}],"anonymous":false},{"type":"event","name":"RoleGranted","inputs":[{"name":"role","type":"bytes32","indexed":true,"internalType":"bytes32"},{"name":"account","type":"address","indexed":true,"internalType":"address"},{"name":"sender","type":"address","indexed":true,"internalType":"address"}],"anonymous":false},{"type":"event","name":"RoleRevoked","inputs":[{"name":"role","type":"bytes32","indexed":true,"internalType":"bytes32"},{"name":"account","type":"address","indexed":true,"internalType":"address"},{"name":"sender","type":"address","indexed":true,"internalType":"address"}],"anonymous":false},{"type":"error","name":"AccessControlBadConfirmation","inputs":[]},{"type":"error","name":"AccessControlUnauthorizedAccount","inputs":[{"name":"account","type":"address","internalType":"address"},{"name":"neededRole","type":"bytes32","internalType":"bytes32"}]}],"bytecode":{"object":"0x608060405234801562000010575f80fd5b506040516200120e3803806200120e83398101604081905262000033916200012f565b6200003f5f8262000067565b5050600180546001600160a01b0319166001600160a01b039290921691909117905562000165565b5f828152602081815260408083206001600160a01b038516845290915281205460ff166200010a575f838152602081815260408083206001600160a01b03861684529091529020805460ff19166001179055620000c13390565b6001600160a01b0316826001600160a01b0316847f2f8788117e7eff1d82e926ec794901d17c78024a50270940304540a733656f0d60405160405180910390a45060016200010d565b505f5b92915050565b80516001600160a01b03811681146200012a575f80fd5b919050565b5f806040838503121562000141575f80fd5b6200014c8362000113565b91506200015c6020840162000113565b90509250929050565b61109b80620001735f395ff3fe608060405234801561000f575f80fd5b50600436106100f0575f3560e01c806391d1485411610093578063b92dfe5c11610063578063b92dfe5c1461020b578063c49cd1891461021e578063d547741f14610231578063e2fdcc1714610244575f80fd5b806391d14854146101d5578063a217fddf146101e8578063a5c1674e146101ef578063b0c2aa5e14610202575f80fd5b806325b8e7eb116100ce57806325b8e7eb146101735780632f2ff15d1461019a57806336568abe146101af5780633f2a66f8146101c2575f80fd5b806301ffc9a7146100f4578063180aedf31461011c578063248a9ca314610143575b5f80fd5b610107610102366004610bf2565b61026f565b60405190151581526020015b60405180910390f35b61012f61012a366004610c20565b6102a5565b604051610113989796959493929190610c4b565b610165610151366004610c20565b5f9081526020819052604090206001015490565b604051908152602001610113565b6101657ffaa623ff490ff9197b5ad863cd7f72b33e2e131994d09bd7260d7cd680faad7981565b6101ad6101a8366004610d14565b610381565b005b6101ad6101bd366004610d14565b6103ab565b6101ad6101d0366004610d3e565b6103e3565b6101076101e3366004610d14565b6105c9565b6101655f81565b6101ad6101fd366004610c20565b6105f1565b61016560025481565b6101ad610219366004610c20565b6106ff565b6101ad61022c366004610d66565b610879565b6101ad61023f366004610d14565b610a8c565b600154610257906001600160a01b031681565b6040516001600160a01b039091168152602001610113565b5f6001600160e01b03198216637965db0b60e01b148061029f57506301ffc9a760e01b6001600160e01b03198316145b92915050565b600360208190525f9182526040909120805460018201546002830154938301546004840154600585015460068601805495976001600160a01b0395861697951695939460ff909316939192916102fa90610ddf565b80601f016020809104026020016040519081016040528092919081815260200182805461032690610ddf565b80156103715780601f1061034857610100808354040283529160200191610371565b820191905f5260205f20905b81548152906001019060200180831161035457829003601f168201915b5050505050908060070154905088565b5f8281526020819052604090206001015461039b81610ab0565b6103a58383610abd565b50505050565b6001600160a01b03811633146103d45760405163334bd91960e11b815260040160405180910390fd5b6103de8282610b4c565b505050565b600280545f91826103f383610e2b565b919050559050604051806101000160405280828152602001336001600160a01b03168152602001846001600160a01b031681526020018381526020015f600281111561044157610441610c37565b81525f60208083018290526040805180830182528381528185015260609384018390528583526003808352928190208551815591850151600180840180546001600160a01b03199081166001600160a01b0394851617909155928701516002808601805490951691909316179092559385015192820192909255608084015160048201805492949193909260ff19169184908111156104e2576104e2610c37565b021790555060a0820151600582015560c082015160068201906105059082610ea4565b5060e0919091015160079091015560015460405163bc157ac160e01b815260048101839052336024820152604481018490526001600160a01b039091169063bc157ac1906064015f604051808303815f87803b158015610563575f80fd5b505af1158015610575573d5f803e3d5ffd5b5050604080513381526001600160a01b03871660208201529081018590528392507f8f4ee83cefe0dfb2f73fe6057bfa5b233fc43358bbb5f5606f444cbd4c5c4f8c915060600160405180910390a2505050565b5f918252602082815260408084206001600160a01b0393909316845291905290205460ff1690565b5f81815260036020526040902060018101546001600160a01b0316331480610625575060028101546001600160a01b031633145b6106625760405162461bcd60e51b81526020600482015260096024820152684e6f7420706172747960b81b60448201526064015b60405180910390fd5b5f600482015460ff16600281111561067c5761067c610c37565b146106b65760405162461bcd60e51b815260206004820152600a6024820152694e6f742061637469766560b01b6044820152606401610659565b60048101805460ff1916600117905560405133815282907f84a477df8a28a4276ca6dee4458a06c3015f30c477d9c949ede4e13ff8a552b4906020015b60405180910390a25050565b5f81815260036020526040902060018101546001600160a01b031633146107565760405162461bcd60e51b815260206004820152600b60248201526a13db9b1e4818db1a595b9d60aa1b6044820152606401610659565b5f600482015460ff16600281111561077057610770610c37565b146107aa5760405162461bcd60e51b815260206004820152600a6024820152694e6f742061637469766560b01b6044820152606401610659565b600154600282015460038301546040516367343c0960e11b81526001600160a01b03928316600482015260248101919091526044810185905291169063ce687812906064015f604051808303815f87803b158015610806575f80fd5b505af1158015610818573d5f803e3d5ffd5b5050505060048101805460ff191660029081179091558101546003820154604080516001600160a01b039093168352602083019190915283917f6e3c6096795c8298a218b2cfb8bde42726ff7c9a3d27b4d3ba41ab7f74feb5fb91016106f3565b7ffaa623ff490ff9197b5ad863cd7f72b33e2e131994d09bd7260d7cd680faad796108a381610ab0565b5f8581526003602052604090206001600482015460ff1660028111156108cb576108cb610c37565b146109075760405162461bcd60e51b815260206004820152600c60248201526b139bdd08191a5cdc1d5d195960a21b6044820152606401610659565b60068101610916848683610f60565b506005810185905542600782015560038101545f9060649061093990889061101c565b6109439190611033565b90505f8183600301546109569190611052565b905081156109cb5760018054908401546040516367343c0960e11b81526001600160a01b03918216600482015260248101859052604481018b905291169063ce687812906064015f604051808303815f87803b1580156109b4575f80fd5b505af11580156109c6573d5f803e3d5ffd5b505050505b8015610a3e5760015460028401546040516367343c0960e11b81526001600160a01b03918216600482015260248101849052604481018b905291169063ce687812906064015f604051808303815f87803b158015610a27575f80fd5b505af1158015610a39573d5f803e3d5ffd5b505050505b60048301805460ff1916600217905560405187815288907fb4121f1f91a696a3fc75f6d151f3c9865abffa0738bda595e71c381c02af2faa9060200160405180910390a25050505050505050565b5f82815260208190526040902060010154610aa681610ab0565b6103a58383610b4c565b610aba8133610bb5565b50565b5f610ac883836105c9565b610b45575f838152602081815260408083206001600160a01b03861684529091529020805460ff19166001179055610afd3390565b6001600160a01b0316826001600160a01b0316847f2f8788117e7eff1d82e926ec794901d17c78024a50270940304540a733656f0d60405160405180910390a450600161029f565b505f61029f565b5f610b5783836105c9565b15610b45575f838152602081815260408083206001600160a01b0386168085529252808320805460ff1916905551339286917ff6391f5c32d9c69d2a47ea670b442974b53935d1edc7fd64eb21e047a839171b9190a450600161029f565b610bbf82826105c9565b610bee5760405163e2517d3f60e01b81526001600160a01b038216600482015260248101839052604401610659565b5050565b5f60208284031215610c02575f80fd5b81356001600160e01b031981168114610c19575f80fd5b9392505050565b5f60208284031215610c30575f80fd5b5035919050565b634e487b7160e01b5f52602160045260245ffd5b5f6101008a8352602060018060a01b03808c1682860152808b1660408601525088606085015260038810610c8d57634e487b7160e01b5f52602160045260245ffd5b8760808501528660a08501528160c0850152855180838601525f92505b80831015610cc957868301820151858401610120015291810191610caa565b61012092505f83828701015282601f19601f83011686010193505050508260e08301529998505050505050505050565b80356001600160a01b0381168114610d0f575f80fd5b919050565b5f8060408385031215610d25575f80fd5b82359150610d3560208401610cf9565b90509250929050565b5f8060408385031215610d4f575f80fd5b610d5883610cf9565b946020939093013593505050565b5f805f8060608587031215610d79575f80fd5b8435935060208501359250604085013567ffffffffffffffff80821115610d9e575f80fd5b818701915087601f830112610db1575f80fd5b813581811115610dbf575f80fd5b886020828501011115610dd0575f80fd5b95989497505060200194505050565b600181811c90821680610df357607f821691505b602082108103610e1157634e487b7160e01b5f52602260045260245ffd5b50919050565b634e487b7160e01b5f52601160045260245ffd5b5f60018201610e3c57610e3c610e17565b5060010190565b634e487b7160e01b5f52604160045260245ffd5b601f8211156103de575f81815260208120601f850160051c81016020861015610e7d5750805b601f850160051c820191505b81811015610e9c57828155600101610e89565b505050505050565b815167ffffffffffffffff811115610ebe57610ebe610e43565b610ed281610ecc8454610ddf565b84610e57565b602080601f831160018114610f05575f8415610eee5750858301515b5f19600386901b1c1916600185901b178555610e9c565b5f85815260208120601f198616915b82811015610f3357888601518255948401946001909101908401610f14565b5085821015610f5057878501515f19600388901b60f8161c191681555b5050505050600190811b01905550565b67ffffffffffffffff831115610f7857610f78610e43565b610f8c83610f868354610ddf565b83610e57565b5f601f841160018114610fbd575f8515610fa65750838201355b5f19600387901b1c1916600186901b178355611015565b5f83815260209020601f19861690835b82811015610fed5786850135825560209485019460019092019101610fcd565b5086821015611009575f1960f88860031b161c19848701351681555b505060018560011b0183555b5050505050565b808202811582820484141761029f5761029f610e17565b5f8261104d57634e487b7160e01b5f52601260045260245ffd5b500490565b8181038181111561029f5761029f610e1756fea26469706673582212200e1dce06c2f97657904fbdf2089737ebfa0e1a755468763edc7fa7a0bb1a288164736f6c63430008140033","linkReferences":{}},"methodIdentifiers":{"AI_AGENT_ROLE()":"25b8e7eb","DEFAULT_ADMIN_ROLE()":"a217fddf","createJob(address,uint256)":"3f2a66f8","escrow()":"e2fdcc17","getRoleAdmin(bytes32)":"248a9ca3","grantRole(bytes32,address)":"2f2ff15d","hasRole(bytes32,address)":"91d14854","jobs(uint256)":"180aedf3","nextJobId()":"b0c2aa5e","raiseDispute(uint256)":"a5c1674e","releaseToContractor(uint256)":"b92dfe5c","renounceRole(bytes32,address)":"36568abe","resolveDispute(uint256,uint256,string)":"c49cd189","revokeRole(bytes32,address)":"d547741f","supportsInterface(bytes4)":"01ffc9a7"},"id":29}