{"abi":[{"type":"constructor","inputs":[{"name":"_usdcAddress","type":"address","internalType":"address"},{"name":"_initialOwner","type":"address","internalType":"address"}],"stateMutability":"nonpayable"},{"type":"function","name":"USDC","inputs":[],"outputs":[{"name":"","type":"address","internalType":"contract IERC20"}],"stateMutability":"view"},{"type":"function","name":"deposit","inputs":[{"name":"_disputeId","type":"uint256","internalType":"uint256"},{"name":"_payer","type":"address","internalType":"address"},{"name":"_amount","type":"uint256","internalType":"uint256"}],"outputs":[],"stateMutability":"nonpayable"},{"type":"function","name":"disputeContract","inputs":[],"outputs":[{"name":"","type":"address","internalType":"address"}],"stateMutability":"view"},{"type":"function","name":"owner","inputs":[],"outputs":[{"name":"","type":"address","internalType":"address"}],"stateMutability":"view"},{"type":"function","name":"releaseFunds","inputs":[{"name":"_recipient","type":"address","internalType":"address"},{"name":"_amount","type":"uint256","internalType":"uint256"},{"name":"_disputeId","type":"uint256","internalType":"uint256"}],"outputs":[],"stateMutability":"nonpayable"},{"type":"function","name":"renounceOwnership","inputs":[],"outputs":[],"stateMutability":"nonpayable"},{"type":"function","name":"setDisputeContract","inputs":[{"name":"_disputeContract","type":"address","internalType":"address"}],"outputs":[],"stateMutability":"nonpayable"},{"type":"function","name":"transferOwnership","inputs":[{"name":"newOwner","type":"address","internalType":"address"}],"outputs":[],"stateMutability":"nonpayable"},{"type":"event","name":"FundsDeposited","inputs":[{"name":"disputeId","type":"uint256","indexed":true,"internalType":"uint256"},{"name":"payer","type":"address","indexed":true,"internalType":"address"},{"name":"amount","type":"uint256","indexed":false,"internalType":"uint256"}],"anonymous":false},{"type":"event","name":"FundsReleased","inputs":[{"name":"disputeId","type":"uint256","indexed":true,"internalType":"uint256"},{"name":"recipient","type":"address","indexed":true,"internalType":"address"},{"name":"amount","type":"uint256","indexed":false,"internalType":"uint256"}],"anonymous":false},{"type":"event","name":"OwnershipTransferred","inputs":[{"name":"previousOwner","type":"address","indexed":true,"internalType":"address"},{"name":"newOwner","type":"address","indexed":true,"internalType":"address"}],"anonymous":false},{"type":"error","name":"OwnableInvalidOwner","inputs":[{"name":"owner","type":"address","internalType":"address"}]},{"type":"error","name":"OwnableUnauthorizedAccount","inputs":[{"name":"account","type":"address","internalType":"address"}]}],"bytecode":{"object":"0x60a060405234801561000f575f80fd5b506040516108ae3803806108ae83398101604081905261002e916100e2565b806001600160a01b03811661005c57604051631e4fbdf760e01b81525f600482015260240160405180910390fd5b61006581610078565b50506001600160a01b0316608052610113565b5f80546001600160a01b038381166001600160a01b0319831681178455604051919092169283917f8be0079c531659141344cd1fd0a4f28419497f9722a3daafe3b4186f6b6457e09190a35050565b80516001600160a01b03811681146100dd575f80fd5b919050565b5f80604083850312156100f3575f80fd5b6100fc836100c7565b915061010a602084016100c7565b90509250929050565b60805161076f61013f5f395f818160da0152818161025a01528181610375015261045c015261076f5ff3fe608060405234801561000f575f80fd5b5060043610610085575f3560e01c80638da5cb5b116100585780638da5cb5b146100fc578063bc157ac11461010c578063ce6878121461011f578063f2fde38b14610132575f80fd5b80634010b84e1461008957806344d23d6f146100b8578063715018a6146100cd57806389a30271146100d5575b5f80fd5b60015461009c906001600160a01b031681565b6040516001600160a01b03909116815260200160405180910390f35b6100cb6100c6366004610681565b610145565b005b6100cb6101cd565b61009c7f000000000000000000000000000000000000000000000000000000000000000081565b5f546001600160a01b031661009c565b6100cb61011a3660046106a1565b6101e0565b6100cb61012d3660046106d3565b610356565b6100cb610140366004610681565b610549565b61014d610586565b6001546001600160a01b0316156101ab5760405162461bcd60e51b815260206004820152601c60248201527f4469737075746520636f6e747261637420616c7265616479207365740000000060448201526064015b60405180910390fd5b600180546001600160a01b0319166001600160a01b0392909216919091179055565b6101d5610586565b6101de5f6105b2565b565b6101e8610601565b5f811161022c5760405162461bcd60e51b81526020600482015260126024820152710416d6f756e74206d757374206265203e20360741b60448201526064016101a2565b6040516323b872dd60e01b81526001600160a01b038381166004830152306024830152604482018390525f917f0000000000000000000000000000000000000000000000000000000000000000909116906323b872dd906064016020604051808303815f875af11580156102a2573d5f803e3d5ffd5b505050506040513d601f19601f820116820180604052508101906102c69190610703565b90508061030c5760405162461bcd60e51b81526020600482015260146024820152731554d110c81d1c985b9cd9995c8819985a5b195960621b60448201526064016101a2565b826001600160a01b0316847fe030e47e27825a2ad1b19e4cf2e70bfbfb3124af275c7727a82b114ba7b29a858460405161034891815260200190565b60405180910390a350505050565b61035e610601565b6040516370a0823160e01b815230600482015282907f00000000000000000000000000000000000000000000000000000000000000006001600160a01b0316906370a0823190602401602060405180830381865afa1580156103c2573d5f803e3d5ffd5b505050506040513d601f19601f820116820180604052508101906103e69190610722565b10156104345760405162461bcd60e51b815260206004820152601b60248201527f496e73756666696369656e7420657363726f772062616c616e6365000000000060448201526064016101a2565b60405163a9059cbb60e01b81526001600160a01b038481166004830152602482018490525f917f00000000000000000000000000000000000000000000000000000000000000009091169063a9059cbb906044016020604051808303815f875af11580156104a4573d5f803e3d5ffd5b505050506040513d601f19601f820116820180604052508101906104c89190610703565b90508061050d5760405162461bcd60e51b81526020600482015260136024820152721554d110c81c995b19585cd94819985a5b1959606a1b60448201526064016101a2565b836001600160a01b0316827f6e3c6096795c8298a218b2cfb8bde42726ff7c9a3d27b4d3ba41ab7f74feb5fb8560405161034891815260200190565b610551610586565b6001600160a01b03811661057a57604051631e4fbdf760e01b81525f60048201526024016101a2565b610583816105b2565b50565b5f546001600160a01b031633146101de5760405163118cdaa760e01b81523360048201526024016101a2565b5f80546001600160a01b038381166001600160a01b0319831681178455604051919092169283917f8be0079c531659141344cd1fd0a4f28419497f9722a3daafe3b4186f6b6457e09190a35050565b6001546001600160a01b031633146101de5760405162461bcd60e51b815260206004820152602260248201527f43616c6c6572206973206e6f7420746865204469737075746520436f6e74726160448201526118dd60f21b60648201526084016101a2565b80356001600160a01b038116811461067c575f80fd5b919050565b5f60208284031215610691575f80fd5b61069a82610666565b9392505050565b5f805f606084860312156106b3575f80fd5b833592506106c360208501610666565b9150604084013590509250925092565b5f805f606084860312156106e5575f80fd5b6106ee84610666565b95602085013595506040909401359392505050565b5f60208284031215610713575f80fd5b8151801515811461069a575f80fd5b5f60208284031215610732575f80fd5b505191905056fea26469706673582212203e9b57dfed2bec7d7e1422ebf4185581a070035ac58b10e25bdc1a63b278612864736f6c63430008140033","linkReferences":{}},"methodIdentifiers":{"USDC()":"89a30271","deposit(uint256,address,uint256)":"bc157ac1","disputeContract()":"4010b84e","owner()":"8da5cb5b","releaseFunds(address,uint256,uint256)":"ce687812","renounceOwnership()":"715018a6","setDisputeContract(address)":"44d23d6f","transferOwnership(address)":"f2fde38b"},"id":30}