{"abi":[{"type":"constructor","inputs":[{"name":"_usdcAddress","type":"address","internalType":"address"},{"name":"_initialOwner","type":"address","internalType":"address"}],"stateMutability":"nonpayable"},{"type":"function","name":"USDC","inputs":[],"outputs":[{"name":"","type":"address","internalType":"contract IERC20"}],"stateMutability":"view"},{"type":"function","name":"daoContract","inputs":[],"outputs":[{"name":"","type":"address","internalType":"address"}],"stateMutability":"view"},{"type":"function","name":"deposit","inputs":[{"name":"_jobId","type":"uint256","internalType":"uint256"},{"name":"_payer","type":"address","internalType":"address"},{"name":"_amount","type":"uint256","internalType":"uint256"},{"name":"_isFee","type":"bool","internalType":"bool"}],"outputs":[],"stateMutability":"nonpayable"},{"type":"function","name":"disputeContract","inputs":[],"outputs":[{"name":"","type":"address","internalType":"address"}],"stateMutability":"view"},{"type":"function","name":"owner","inputs":[],"outputs":[{"name":"","type":"address","internalType":"address"}],"stateMutability":"view"},{"type":"function","name":"releaseFunds","inputs":[{"name":"_recipient","type":"address","internalType":"address"},{"name":"_amount","type":"uint256","internalType":"uint256"},{"name":"_jobId","type":"uint256","internalType":"uint256"}],"outputs":[],"stateMutability":"nonpayable"},{"type":"function","name":"renounceOwnership","inputs":[],"outputs":[],"stateMutability":"nonpayable"},{"type":"function","name":"rescueFunds","inputs":[{"name":"_token","type":"address","internalType":"address"},{"name":"_to","type":"address","internalType":"address"},{"name":"_amount","type":"uint256","internalType":"uint256"}],"outputs":[],"stateMutability":"nonpayable"},{"type":"function","name":"setDAOContract","inputs":[{"name":"_daoContract","type":"address","internalType":"address"}],"outputs":[],"stateMutability":"nonpayable"},{"type":"function","name":"setDisputeContract","inputs":[{"name":"_disputeContract","type":"address","internalType":"address"}],"outputs":[],"stateMutability":"nonpayable"},{"type":"function","name":"transferOwnership","inputs":[{"name":"newOwner","type":"address","internalType":"address"}],"outputs":[],"stateMutability":"nonpayable"},{"type":"event","name":"FundsDeposited","inputs":[{"name":"jobId","type":"uint256","indexed":true,"internalType":"uint256"},{"name":"payer","type":"address","indexed":true,"internalType":"address"},{"name":"amount","type":"uint256","indexed":false,"internalType":"uint256"},{"name":"isFee","type":"bool","indexed":false,"internalType":"bool"}],"anonymous":false},{"type":"event","name":"FundsReleased","inputs":[{"name":"jobId","type":"uint256","indexed":true,"internalType":"uint256"},{"name":"recipient","type":"address","indexed":true,"internalType":"address"},{"name":"amount","type":"uint256","indexed":false,"internalType":"uint256"}],"anonymous":false},{"type":"event","name":"FundsRescued","inputs":[{"name":"token","type":"address","indexed":true,"internalType":"address"},{"name":"to","type":"address","indexed":true,"internalType":"address"},{"name":"amount","type":"uint256","indexed":false,"internalType":"uint256"}],"anonymous":false},{"type":"event","name":"OwnershipTransferred","inputs":[{"name":"previousOwner","type":"address","indexed":true,"internalType":"address"},{"name":"newOwner","type":"address","indexed":true,"internalType":"address"}],"anonymous":false},{"type":"error","name":"OwnableInvalidOwner","inputs":[{"name":"owner","type":"address","internalType":"address"}]},{"type":"error","name":"OwnableUnauthorizedAccount","inputs":[{"name":"account","type":"address","internalType":"address"}]}],"bytecode":{"object":"0x60a03461013157601f610a5a38819003918201601f19168301916001600160401b0383118484101761013557808492604094855283398101031261013157602061004882610149565b916001600160a01b0391829161005e9101610149565b16918215610119575f80546001600160a01b03198116851782556040519491908416907f8be0079c531659141344cd1fd0a4f28419497f9722a3daafe3b4186f6b6457e09080a3169081156100d757506080526040516108fc908161015e82396080518181816101770152818161037601526106870152f35b62461bcd60e51b815260206004820152601460248201527f496e76616c6964205553444320416464726573730000000000000000000000006044820152606490fd5b604051631e4fbdf760e01b81525f6004820152602490fd5b5f80fd5b634e487b7160e01b5f52604160045260245ffd5b51906001600160a01b03821682036101315756fe60406080815260049081361015610014575f80fd5b5f91823560e01c806306aaa1c8146106075780634010b84e146105de578063425d512a1461058d57806344d23d6f1461053c5780634a7ffcbc146105135780636ccae05414610402578063715018a6146103a557806389a30271146103615780638da5cb5b14610339578063ce687812146101205763f2fde38b14610097575f80fd5b3461011c57602036600319011261011c576100b06107b5565b906100b96107cb565b6001600160a01b0391821692831561010657505082546001600160a01b0319811683178455167f8be0079c531659141344cd1fd0a4f28419497f9722a3daafe3b4186f6b6457e08380a380f35b51631e4fbdf760e01b8152908101849052602490fd5b8280fd5b508290346103355760603660031901126103355761013c6107b5565b600154602435916001600160a01b0391821633148015610328575b61016090610834565b85516370a0823160e01b81523081860152602094907f00000000000000000000000000000000000000000000000000000000000000008416908681602481855afa90811561031e5790869189916102e9575b50106102a657875163a9059cbb60e01b81526001600160a01b038416838201908152602081018790529091879183919082908b90829060400103925af190811561029c57879161026f575b50156102365750907f6e3c6096795c8298a218b2cfb8bde42726ff7c9a3d27b4d3ba41ab7f74feb5fb918651938452169260443592a380f35b865162461bcd60e51b815290810185905260136024820152721554d110c81c995b19585cd94819985a5b1959606a1b6044820152606490fd5b61028f9150863d8811610295575b6102878183610878565b8101906108ae565b886101fd565b503d61027d565b88513d89823e3d90fd5b875162461bcd60e51b8152808301879052601b60248201527f496e73756666696369656e7420657363726f772062616c616e636500000000006044820152606490fd5b809250888092503d8311610317575b6103028183610878565b81010312610313578590518a6101b2565b8780fd5b503d6102f8565b89513d8a823e3d90fd5b5060025482163314610157565b5080fd5b505034610335578160031936011261033557905490516001600160a01b039091168152602090f35b505034610335578160031936011261033557517f00000000000000000000000000000000000000000000000000000000000000006001600160a01b03168152602090f35b83346103ff57806003193601126103ff576103be6107cb565b80546001600160a01b03198116825581906001600160a01b03167f8be0079c531659141344cd1fd0a4f28419497f9722a3daafe3b4186f6b6457e08280a380f35b80fd5b503461011c57606036600319011261011c5761041c6107b5565b61042461079b565b604435936104306107cb565b805163a9059cbb60e01b81526001600160a01b038381168287019081526020818101899052958216969195919291908290819060400103818b8a5af19081156105095788916104eb575b50156104b057505193845216917fed2837b80b3489773c5f1ed30dd2884b4c90dbf7b87428ea03c49b24ef59a80590602090a380f35b6020606492519162461bcd60e51b8352820152601660248201527514995cd8dd59481d1c985b9cd9995c8819985a5b195960521b6044820152fd5b610503915060203d8111610295576102878183610878565b5f61047a565b83513d8a823e3d90fd5b50503461033557816003193601126103355760025490516001600160a01b039091168152602090f35b83346103ff5760203660031901126103ff576105566107b5565b61055e6107cb565b6001600160a01b03166105728115156107f6565b6bffffffffffffffffffffffff60a01b600154161760015580f35b83346103ff5760203660031901126103ff576105a76107b5565b6105af6107cb565b6001600160a01b03166105c38115156107f6565b6bffffffffffffffffffffffff60a01b600254161760025580f35b50503461033557816003193601126103355760015490516001600160a01b039091168152602090f35b503461011c57608036600319011261011c5761062161079b565b9160443591606435801515809103610797576001546001600160a01b03959086163314801561078a575b61065490610834565b84156107525760208660648993875194859384926323b872dd60e01b8452169a8b898401523060248401528a60448401527f0000000000000000000000000000000000000000000000000000000000000000165af190811561074857879161072a575b50156106f0578251938452602084015235917ff53413d537fc67177f959a86905d56d592802dd59982c98a0cebcf4f5017a6829190a380f35b506020606492519162461bcd60e51b835282015260146024820152731554d110c81d1c985b9cd9995c8819985a5b195960621b6044820152fd5b610742915060203d8111610295576102878183610878565b5f6106b7565b84513d89823e3d90fd5b835162461bcd60e51b815260208185015260126024820152710416d6f756e74206d757374206265203e20360741b6044820152606490fd5b506002548616331461064b565b8580fd5b602435906001600160a01b03821682036107b157565b5f80fd5b600435906001600160a01b03821682036107b157565b5f546001600160a01b031633036107de57565b60405163118cdaa760e01b8152336004820152602490fd5b156107fd57565b60405162461bcd60e51b815260206004820152600f60248201526e496e76616c6964204164647265737360881b6044820152606490fd5b1561083b57565b60405162461bcd60e51b815260206004820152601560248201527410d85b1b195c881b9bdd08185d5d1a1bdc9a5e9959605a1b6044820152606490fd5b90601f8019910116810190811067ffffffffffffffff82111761089a57604052565b634e487b7160e01b5f52604160045260245ffd5b908160209103126107b1575180151581036107b1579056fea26469706673582212204268f2f3ba53135b3b507ff4f96abc5443246af7da52c7a488955dd42e68a97f64736f6c63430008140033","linkReferences":{}},"methodIdentifiers":{"USDC()":"89a30271","daoContract()":"4a7ffcbc","deposit(uint256,address,uint256,bool)":"06aaa1c8","disputeContract()":"4010b84e","owner()":"8da5cb5b","releaseFunds(address,uint256,uint256)":"ce687812","renounceOwnership()":"715018a6","rescueFunds(address,address,uint256)":"6ccae054","setDAOContract(address)":"425d512a","setDisputeContract(address)":"44d23d6f","transferOwnership(address)":"f2fde38b"},"id":9}