{"abi":[{"type":"constructor","inputs":[{"name":"_usdcAddress","type":"address","internalType":"address"},{"name":"_initialOwner","type":"address","internalType":"address"}],"stateMutability":"nonpayable"},{"type":"function","name":"USDC","inputs":[],"outputs":[{"name":"","type":"address","internalType":"contract IERC20"}],"stateMutability":"view"},{"type":"function","name":"deposit","inputs":[{"name":"_disputeId","type":"uint256","internalType":"uint256"},{"name":"_payer","type":"address","internalType":"address"},{"name":"_amount","type":"uint256","internalType":"uint256"}],"outputs":[],"stateMutability":"nonpayable"},{"type":"function","name":"disputeContract","inputs":[],"outputs":[{"name":"","type":"address","internalType":"address"}],"stateMutability":"view"},{"type":"function","name":"owner","inputs":[],"outputs":[{"name":"","type":"address","internalType":"address"}],"stateMutability":"view"},{"type":"function","name":"releaseFunds","inputs":[{"name":"_recipient","type":"address","internalType":"address"},{"name":"_amount","type":"uint256","internalType":"uint256"},{"name":"_disputeId","type":"uint256","internalType":"uint256"}],"outputs":[],"stateMutability":"nonpayable"},{"type":"function","name":"renounceOwnership","inputs":[],"outputs":[],"stateMutability":"nonpayable"},{"type":"function","name":"rescueFunds","inputs":[{"name":"_token","type":"address","internalType":"address"},{"name":"_to","type":"address","internalType":"address"},{"name":"_amount","type":"uint256","internalType":"uint256"}],"outputs":[],"stateMutability":"nonpayable"},{"type":"function","name":"setDisputeContract","inputs":[{"name":"_disputeContract","type":"address","internalType":"address"}],"outputs":[],"stateMutability":"nonpayable"},{"type":"function","name":"transferOwnership","inputs":[{"name":"newOwner","type":"address","internalType":"address"}],"outputs":[],"stateMutability":"nonpayable"},{"type":"event","name":"FundsDeposited","inputs":[{"name":"disputeId","type":"uint256","indexed":true,"internalType":"uint256"},{"name":"payer","type":"address","indexed":true,"internalType":"address"},{"name":"amount","type":"uint256","indexed":false,"internalType":"uint256"}],"anonymous":false},{"type":"event","name":"FundsReleased","inputs":[{"name":"disputeId","type":"uint256","indexed":true,"internalType":"uint256"},{"name":"recipient","type":"address","indexed":true,"internalType":"address"},{"name":"amount","type":"uint256","indexed":false,"internalType":"uint256"}],"anonymous":false},{"type":"event","name":"FundsRescued","inputs":[{"name":"token","type":"address","indexed":true,"internalType":"address"},{"name":"to","type":"address","indexed":true,"internalType":"address"},{"name":"amount","type":"uint256","indexed":false,"internalType":"uint256"}],"anonymous":false},{"type":"event","name":"OwnershipTransferred","inputs":[{"name":"previousOwner","type":"address","indexed":true,"internalType":"address"},{"name":"newOwner","type":"address","indexed":true,"internalType":"address"}],"anonymous":false},{"type":"error","name":"OwnableInvalidOwner","inputs":[{"name":"owner","type":"address","internalType":"address"}]},{"type":"error","name":"OwnableUnauthorizedAccount","inputs":[{"name":"account","type":"address","internalType":"address"}]}],"bytecode":{"object":"0x60a060405234801561000f575f80fd5b50604051610a99380380610a9983398101604081905261002e9161018f565b806001600160a01b03811661005d57604051631e4fbdf760e01b81525f60048201526024015b60405180910390fd5b61006681610125565b506001600160a01b0382166100bd5760405162461bcd60e51b815260206004820152601460248201527f496e76616c6964205553444320416464726573730000000000000000000000006044820152606401610054565b6001600160a01b0381166101135760405162461bcd60e51b815260206004820152601560248201527f496e76616c6964204f776e6572204164647265737300000000000000000000006044820152606401610054565b506001600160a01b03166080526101c0565b5f80546001600160a01b038381166001600160a01b0319831681178455604051919092169283917f8be0079c531659141344cd1fd0a4f28419497f9722a3daafe3b4186f6b6457e09190a35050565b80516001600160a01b038116811461018a575f80fd5b919050565b5f80604083850312156101a0575f80fd5b6101a983610174565b91506101b760208401610174565b90509250929050565b6080516108ad6101ec5f395f818160f80152818161037d0152818161048a015261057101526108ad5ff3fe608060405234801561000f575f80fd5b5060043610610090575f3560e01c806389a302711161006357806389a30271146100f35780638da5cb5b1461011a578063bc157ac11461012a578063ce6878121461013d578063f2fde38b14610150575f80fd5b80634010b84e1461009457806344d23d6f146100c35780636ccae054146100d8578063715018a6146100eb575b5f80fd5b6001546100a7906001600160a01b031681565b6040516001600160a01b03909116815260200160405180910390f35b6100d66100d1366004610796565b610163565b005b6100d66100e63660046107b6565b6101da565b6100d66102f0565b6100a77f000000000000000000000000000000000000000000000000000000000000000081565b5f546001600160a01b03166100a7565b6100d66101383660046107ef565b610303565b6100d661014b366004610811565b61046b565b6100d661015e366004610796565b61065e565b61016b61069b565b6001600160a01b0381166101b85760405162461bcd60e51b815260206004820152600f60248201526e496e76616c6964204164647265737360881b60448201526064015b60405180910390fd5b600180546001600160a01b0319166001600160a01b0392909216919091179055565b6101e261069b565b60405163a9059cbb60e01b81526001600160a01b038381166004830152602482018390525f919085169063a9059cbb906044016020604051808303815f875af1158015610231573d5f803e3d5ffd5b505050506040513d601f19601f820116820180604052508101906102559190610841565b90508061029d5760405162461bcd60e51b815260206004820152601660248201527514995cd8dd59481d1c985b9cd9995c8819985a5b195960521b60448201526064016101af565b826001600160a01b0316846001600160a01b03167fed2837b80b3489773c5f1ed30dd2884b4c90dbf7b87428ea03c49b24ef59a805846040516102e291815260200190565b60405180910390a350505050565b6102f861069b565b6103015f6106c7565b565b61030b610716565b5f811161034f5760405162461bcd60e51b81526020600482015260126024820152710416d6f756e74206d757374206265203e20360741b60448201526064016101af565b6040516323b872dd60e01b81526001600160a01b038381166004830152306024830152604482018390525f917f0000000000000000000000000000000000000000000000000000000000000000909116906323b872dd906064016020604051808303815f875af11580156103c5573d5f803e3d5ffd5b505050506040513d601f19601f820116820180604052508101906103e99190610841565b90508061042f5760405162461bcd60e51b81526020600482015260146024820152731554d110c81d1c985b9cd9995c8819985a5b195960621b60448201526064016101af565b826001600160a01b0316847fe030e47e27825a2ad1b19e4cf2e70bfbfb3124af275c7727a82b114ba7b29a85846040516102e291815260200190565b610473610716565b6040516370a0823160e01b815230600482015282907f00000000000000000000000000000000000000000000000000000000000000006001600160a01b0316906370a0823190602401602060405180830381865afa1580156104d7573d5f803e3d5ffd5b505050506040513d601f19601f820116820180604052508101906104fb9190610860565b10156105495760405162461bcd60e51b815260206004820152601b60248201527f496e73756666696369656e7420657363726f772062616c616e6365000000000060448201526064016101af565b60405163a9059cbb60e01b81526001600160a01b038481166004830152602482018490525f917f00000000000000000000000000000000000000000000000000000000000000009091169063a9059cbb906044016020604051808303815f875af11580156105b9573d5f803e3d5ffd5b505050506040513d601f19601f820116820180604052508101906105dd9190610841565b9050806106225760405162461bcd60e51b81526020600482015260136024820152721554d110c81c995b19585cd94819985a5b1959606a1b60448201526064016101af565b836001600160a01b0316827f6e3c6096795c8298a218b2cfb8bde42726ff7c9a3d27b4d3ba41ab7f74feb5fb856040516102e291815260200190565b61066661069b565b6001600160a01b03811661068f57604051631e4fbdf760e01b81525f60048201526024016101af565b610698816106c7565b50565b5f546001600160a01b031633146103015760405163118cdaa760e01b81523360048201526024016101af565b5f80546001600160a01b038381166001600160a01b0319831681178455604051919092169283917f8be0079c531659141344cd1fd0a4f28419497f9722a3daafe3b4186f6b6457e09190a35050565b6001546001600160a01b031633146103015760405162461bcd60e51b815260206004820152602260248201527f43616c6c6572206973206e6f7420746865204469737075746520436f6e74726160448201526118dd60f21b60648201526084016101af565b80356001600160a01b0381168114610791575f80fd5b919050565b5f602082840312156107a6575f80fd5b6107af8261077b565b9392505050565b5f805f606084860312156107c8575f80fd5b6107d18461077b565b92506107df6020850161077b565b9150604084013590509250925092565b5f805f60608486031215610801575f80fd5b833592506107df6020850161077b565b5f805f60608486031215610823575f80fd5b61082c8461077b565b95602085013595506040909401359392505050565b5f60208284031215610851575f80fd5b815180151581146107af575f80fd5b5f60208284031215610870575f80fd5b505191905056fea2646970667358221220a7d6659d4b06903fb8cc378ff7926acbf90c582d389c3716ef889b291ae29ce064736f6c63430008140033","linkReferences":{}},"methodIdentifiers":{"USDC()":"89a30271","deposit(uint256,address,uint256)":"bc157ac1","disputeContract()":"4010b84e","owner()":"8da5cb5b","releaseFunds(address,uint256,uint256)":"ce687812","renounceOwnership()":"715018a6","rescueFunds(address,address,uint256)":"6ccae054","setDisputeContract(address)":"44d23d6f","transferOwnership(address)":"f2fde38b"},"id":30}