{"abi":[{"type":"constructor","inputs":[{"name":"_usdcAddress","type":"address","internalType":"address"},{"name":"_initialOwner","type":"address","internalType":"address"}],"stateMutability":"nonpayable"},{"type":"function","name":"deposit","inputs":[{"name":"_disputeId","type":"uint256","internalType":"uint256"},{"name":"_payer","type":"address","internalType":"address"},{"name":"_amount","type":"uint256","internalType":"uint256"}],"outputs":[],"stateMutability":"nonpayable"},{"type":"function","name":"disputeContract","inputs":[],"outputs":[{"name":"","type":"address","internalType":"address"}],"stateMutability":"view"},{"type":"function","name":"owner","inputs":[],"outputs":[{"name":"","type":"address","internalType":"address"}],"stateMutability":"view"},{"type":"function","name":"releaseFunds","inputs":[{"name":"_recipient","type":"address","internalType":"address"},{"name":"_amount","type":"uint256","internalType":"uint256"},{"name":"_disputeId","type":"uint256","internalType":"uint256"}],"outputs":[],"stateMutability":"nonpayable"},{"type":"function","name":"renounceOwnership","inputs":[],"outputs":[],"stateMutability":"nonpayable"},{"type":"function","name":"setDisputeContract","inputs":[{"name":"_disputeContract","type":"address","internalType":"address"}],"outputs":[],"stateMutability":"nonpayable"},{"type":"function","name":"transferOwnership","inputs":[{"name":"newOwner","type":"address","internalType":"address"}],"outputs":[],"stateMutability":"nonpayable"},{"type":"function","name":"usdc","inputs":[],"outputs":[{"name":"","type":"address","internalType":"contract IERC20"}],"stateMutability":"view"},{"type":"event","name":"FundsDeposited","inputs":[{"name":"disputeId","type":"uint256","indexed":true,"internalType":"uint256"},{"name":"payer","type":"address","indexed":true,"internalType":"address"},{"name":"amount","type":"uint256","indexed":false,"internalType":"uint256"}],"anonymous":false},{"type":"event","name":"FundsReleased","inputs":[{"name":"disputeId","type":"uint256","indexed":true,"internalType":"uint256"},{"name":"recipient","type":"address","indexed":true,"internalType":"address"},{"name":"amount","type":"uint256","indexed":false,"internalType":"uint256"}],"anonymous":false},{"type":"event","name":"OwnershipTransferred","inputs":[{"name":"previousOwner","type":"address","indexed":true,"internalType":"address"},{"name":"newOwner","type":"address","indexed":true,"internalType":"address"}],"anonymous":false},{"type":"error","name":"OwnableInvalidOwner","inputs":[{"name":"owner","type":"address","internalType":"address"}]},{"type":"error","name":"OwnableUnauthorizedAccount","inputs":[{"name":"account","type":"address","internalType":"address"}]}],"bytecode":{"object":"0x60a060405234801562000010575f80fd5b50604051620011e4380380620011e483398181016040528101906200003691906200021e565b805f73ffffffffffffffffffffffffffffffffffffffff168173ffffffffffffffffffffffffffffffffffffffff1603620000aa575f6040517f1e4fbdf7000000000000000000000000000000000000000000000000000000008152600401620000a1919062000274565b60405180910390fd5b620000bb81620000f860201b60201c565b508173ffffffffffffffffffffffffffffffffffffffff1660808173ffffffffffffffffffffffffffffffffffffffff168152505050506200028f565b5f805f9054906101000a900473ffffffffffffffffffffffffffffffffffffffff169050815f806101000a81548173ffffffffffffffffffffffffffffffffffffffff021916908373ffffffffffffffffffffffffffffffffffffffff1602179055508173ffffffffffffffffffffffffffffffffffffffff168173ffffffffffffffffffffffffffffffffffffffff167f8be0079c531659141344cd1fd0a4f28419497f9722a3daafe3b4186f6b6457e060405160405180910390a35050565b5f80fd5b5f73ffffffffffffffffffffffffffffffffffffffff82169050919050565b5f620001e882620001bd565b9050919050565b620001fa81620001dc565b811462000205575f80fd5b50565b5f815190506200021881620001ef565b92915050565b5f8060408385031215620002375762000236620001b9565b5b5f620002468582860162000208565b9250506020620002598582860162000208565b9150509250929050565b6200026e81620001dc565b82525050565b5f602082019050620002895f83018462000263565b92915050565b608051610f27620002bd5f395f81816101600152818161038f01528181610553015261062d0152610f275ff3fe608060405234801561000f575f80fd5b5060043610610086575f3560e01c80638da5cb5b116100595780638da5cb5b146100ec578063bc157ac11461010a578063ce68781214610126578063f2fde38b1461014257610086565b80633e413bee1461008a5780634010b84e146100a857806344d23d6f146100c6578063715018a6146100e2575b5f80fd5b61009261015e565b60405161009f91906109aa565b60405180910390f35b6100b0610182565b6040516100bd91906109e3565b60405180910390f35b6100e060048036038101906100db9190610a2a565b6101a7565b005b6100ea610281565b005b6100f4610294565b60405161010191906109e3565b60405180910390f35b610124600480360381019061011f9190610a88565b6102bb565b005b610140600480360381019061013b9190610ad8565b6104c1565b005b61015c60048036038101906101579190610a2a565b61075d565b005b7f000000000000000000000000000000000000000000000000000000000000000081565b60015f9054906101000a900473ffffffffffffffffffffffffffffffffffffffff1681565b6101af6107e1565b5f73ffffffffffffffffffffffffffffffffffffffff1660015f9054906101000a900473ffffffffffffffffffffffffffffffffffffffff1673ffffffffffffffffffffffffffffffffffffffff161461023e576040517f08c379a000000000000000000000000000000000000000000000000000000000815260040161023590610b82565b60405180910390fd5b8060015f6101000a81548173ffffffffffffffffffffffffffffffffffffffff021916908373ffffffffffffffffffffffffffffffffffffffff16021790555050565b6102896107e1565b6102925f610868565b565b5f805f9054906101000a900473ffffffffffffffffffffffffffffffffffffffff16905090565b60015f9054906101000a900473ffffffffffffffffffffffffffffffffffffffff1673ffffffffffffffffffffffffffffffffffffffff163373ffffffffffffffffffffffffffffffffffffffff161461034a576040517f08c379a000000000000000000000000000000000000000000000000000000000815260040161034190610c10565b60405180910390fd5b5f811161038c576040517f08c379a000000000000000000000000000000000000000000000000000000000815260040161038390610c78565b60405180910390fd5b5f7f000000000000000000000000000000000000000000000000000000000000000073ffffffffffffffffffffffffffffffffffffffff166323b872dd8430856040518463ffffffff1660e01b81526004016103ea93929190610ca5565b6020604051808303815f875af1158015610406573d5f803e3d5ffd5b505050506040513d601f19601f8201168201806040525081019061042a9190610d0f565b90508061046c576040517f08c379a000000000000000000000000000000000000000000000000000000000815260040161046390610d84565b60405180910390fd5b8273ffffffffffffffffffffffffffffffffffffffff16847fe030e47e27825a2ad1b19e4cf2e70bfbfb3124af275c7727a82b114ba7b29a85846040516104b39190610da2565b60405180910390a350505050565b60015f9054906101000a900473ffffffffffffffffffffffffffffffffffffffff1673ffffffffffffffffffffffffffffffffffffffff163373ffffffffffffffffffffffffffffffffffffffff1614610550576040517f08c379a000000000000000000000000000000000000000000000000000000000815260040161054790610c10565b60405180910390fd5b817f000000000000000000000000000000000000000000000000000000000000000073ffffffffffffffffffffffffffffffffffffffff166370a08231306040518263ffffffff1660e01b81526004016105aa91906109e3565b602060405180830381865afa1580156105c5573d5f803e3d5ffd5b505050506040513d601f19601f820116820180604052508101906105e99190610dcf565b101561062a576040517f08c379a000000000000000000000000000000000000000000000000000000000815260040161062190610e44565b60405180910390fd5b5f7f000000000000000000000000000000000000000000000000000000000000000073ffffffffffffffffffffffffffffffffffffffff1663a9059cbb85856040518363ffffffff1660e01b8152600401610686929190610e62565b6020604051808303815f875af11580156106a2573d5f803e3d5ffd5b505050506040513d601f19601f820116820180604052508101906106c69190610d0f565b905080610708576040517f08c379a00000000000000000000000000000000000000000000000000000000081526004016106ff90610ed3565b60405180910390fd5b8373ffffffffffffffffffffffffffffffffffffffff16827f6e3c6096795c8298a218b2cfb8bde42726ff7c9a3d27b4d3ba41ab7f74feb5fb8560405161074f9190610da2565b60405180910390a350505050565b6107656107e1565b5f73ffffffffffffffffffffffffffffffffffffffff168173ffffffffffffffffffffffffffffffffffffffff16036107d5575f6040517f1e4fbdf70000000000000000000000000000000000000000000000000000000081526004016107cc91906109e3565b60405180910390fd5b6107de81610868565b50565b6107e9610929565b73ffffffffffffffffffffffffffffffffffffffff16610807610294565b73ffffffffffffffffffffffffffffffffffffffff16146108665761082a610929565b6040517f118cdaa700000000000000000000000000000000000000000000000000000000815260040161085d91906109e3565b60405180910390fd5b565b5f805f9054906101000a900473ffffffffffffffffffffffffffffffffffffffff169050815f806101000a81548173ffffffffffffffffffffffffffffffffffffffff021916908373ffffffffffffffffffffffffffffffffffffffff1602179055508173ffffffffffffffffffffffffffffffffffffffff168173ffffffffffffffffffffffffffffffffffffffff167f8be0079c531659141344cd1fd0a4f28419497f9722a3daafe3b4186f6b6457e060405160405180910390a35050565b5f33905090565b5f73ffffffffffffffffffffffffffffffffffffffff82169050919050565b5f819050919050565b5f61097261096d61096884610930565b61094f565b610930565b9050919050565b5f61098382610958565b9050919050565b5f61099482610979565b9050919050565b6109a48161098a565b82525050565b5f6020820190506109bd5f83018461099b565b92915050565b5f6109cd82610930565b9050919050565b6109dd816109c3565b82525050565b5f6020820190506109f65f8301846109d4565b92915050565b5f80fd5b610a09816109c3565b8114610a13575f80fd5b50565b5f81359050610a2481610a00565b92915050565b5f60208284031215610a3f57610a3e6109fc565b5b5f610a4c84828501610a16565b91505092915050565b5f819050919050565b610a6781610a55565b8114610a71575f80fd5b50565b5f81359050610a8281610a5e565b92915050565b5f805f60608486031215610a9f57610a9e6109fc565b5b5f610aac86828701610a74565b9350506020610abd86828701610a16565b9250506040610ace86828701610a74565b9150509250925092565b5f805f60608486031215610aef57610aee6109fc565b5b5f610afc86828701610a16565b9350506020610b0d86828701610a74565b9250506040610b1e86828701610a74565b9150509250925092565b5f82825260208201905092915050565b7f4469737075746520636f6e747261637420616c726561647920736574000000005f82015250565b5f610b6c601c83610b28565b9150610b7782610b38565b602082019050919050565b5f6020820190508181035f830152610b9981610b60565b9050919050565b7f43616c6c6572206973206e6f7420746865204469737075746520436f6e7472615f8201527f6374000000000000000000000000000000000000000000000000000000000000602082015250565b5f610bfa602283610b28565b9150610c0582610ba0565b604082019050919050565b5f6020820190508181035f830152610c2781610bee565b9050919050565b7f416d6f756e74206d757374206265203e203000000000000000000000000000005f82015250565b5f610c62601283610b28565b9150610c6d82610c2e565b602082019050919050565b5f6020820190508181035f830152610c8f81610c56565b9050919050565b610c9f81610a55565b82525050565b5f606082019050610cb85f8301866109d4565b610cc560208301856109d4565b610cd26040830184610c96565b949350505050565b5f8115159050919050565b610cee81610cda565b8114610cf8575f80fd5b50565b5f81519050610d0981610ce5565b92915050565b5f60208284031215610d2457610d236109fc565b5b5f610d3184828501610cfb565b91505092915050565b7f55534443207472616e73666572206661696c65640000000000000000000000005f82015250565b5f610d6e601483610b28565b9150610d7982610d3a565b602082019050919050565b5f6020820190508181035f830152610d9b81610d62565b9050919050565b5f602082019050610db55f830184610c96565b92915050565b5f81519050610dc981610a5e565b92915050565b5f60208284031215610de457610de36109fc565b5b5f610df184828501610dbb565b91505092915050565b7f496e73756666696369656e7420657363726f772062616c616e636500000000005f82015250565b5f610e2e601b83610b28565b9150610e3982610dfa565b602082019050919050565b5f6020820190508181035f830152610e5b81610e22565b9050919050565b5f604082019050610e755f8301856109d4565b610e826020830184610c96565b9392505050565b7f555344432072656c65617365206661696c6564000000000000000000000000005f82015250565b5f610ebd601383610b28565b9150610ec882610e89565b602082019050919050565b5f6020820190508181035f830152610eea81610eb1565b905091905056fea26469706673582212203fc611ae1f9b1cfa685ff2936f9bb688da91945f783f73644c0654fc47636bfa64736f6c63430008140033","linkReferences":{}},"methodIdentifiers":{"deposit(uint256,address,uint256)":"bc157ac1","disputeContract()":"4010b84e","owner()":"8da5cb5b","releaseFunds(address,uint256,uint256)":"ce687812","renounceOwnership()":"715018a6","setDisputeContract(address)":"44d23d6f","transferOwnership(address)":"f2fde38b","usdc()":"3e413bee"},"id":30}